{"contracts/HealthContract.sol":{"HealthContract":{"abi":[{"anonymous":false,"inputs":[{"indexed":true,"internalType":"address","name":"user","type":"address"},{"indexed":false,"internalType":"uint256","name":"steps","type":"uint256"},{"indexed":false,"internalType":"uint256","name":"water","type":"uint256"},{"indexed":false,"internalType":"uint256","name":"sleep","type":"uint256"}],"name":"HealthDataUpdated","type":"event"},{"anonymous":false,"inputs":[{"indexed":true,"internalType":"address","name":"user","type":"address"},{"indexed":false,"internalType":"uint256","name":"amount","type":"uint256"}],"name":"RewardsClaimed","type":"event"},{"anonymous":false,"inputs":[{"indexed":true,"internalType":"address","name":"user","type":"address"},{"indexed":false,"internalType":"uint256","name":"points","type":"uint256"},{"indexed":false,"internalType":"uint256","name":"bnyAmount","type":"uint256"}],"name":"RewardsEarned","type":"event"},{"inputs":[],"name":"claimRewards","outputs":[],"stateMutability":"nonpayable","type":"function"},{"inputs":[{"internalType":"address","name":"user","type":"address"}],"name":"getBNYRewards","outputs":[{"internalType":"uint256","name":"","type":"uint256"}],"stateMutability":"view","type":"function"},{"inputs":[{"internalType":"address","name":"user","type":"address"}],"name":"getTotalPoints","outputs":[{"internalType":"uint256","name":"","type":"uint256"}],"stateMutability":"view","type":"function"},{"inputs":[{"internalType":"address","name":"user","type":"address"}],"name":"getUserHealthData","outputs":[{"components":[{"internalType":"uint256","name":"dailySteps","type":"uint256"},{"internalType":"uint256","name":"waterIntake","type":"uint256"},{"internalType":"uint256","name":"sleepHours","type":"uint256"},{"internalType":"uint256","name":"goalStreak","type":"uint256"},{"internalType":"uint256","name":"lastUpdate","type":"uint256"}],"internalType":"struct HealthContract.HealthData","name":"","type":"tuple"}],"stateMutability":"view","type":"function"},{"inputs":[{"internalType":"address","name":"user","type":"address"}],"name":"getUserRewards","outputs":[{"components":[{"internalType":"uint256","name":"totalPoints","type":"uint256"},{"internalType":"uint256","name":"bnyRewards","type":"uint256"},{"internalType":"uint256","name":"lastClaimed","type":"uint256"}],"internalType":"struct HealthContract.UserRewards","name":"","type":"tuple"}],"stateMutability":"view","type":"function"},{"inputs":[],"name":"registerUser","outputs":[],"stateMutability":"nonpayable","type":"function"},{"inputs":[{"internalType":"address","name":"","type":"address"}],"name":"registeredUsers","outputs":[{"internalType":"bool","name":"","type":"bool"}],"stateMutability":"view","type":"function"},{"inputs":[{"internalType":"uint256","name":"steps","type":"uint256"},{"internalType":"uint256","name":"water","type":"uint256"},{"internalType":"uint256","name":"sleep","type":"uint256"}],"name":"updateHealthData","outputs":[],"stateMutability":"nonpayable","type":"function"},{"inputs":[{"internalType":"address","name":"","type":"address"}],"name":"userHealthData","outputs":[{"internalType":"uint256","name":"dailySteps","type":"uint256"},{"internalType":"uint256","name":"waterIntake","type":"uint256"},{"internalType":"uint256","name":"sleepHours","type":"uint256"},{"internalType":"uint256","name":"goalStreak","type":"uint256"},{"internalType":"uint256","name":"lastUpdate","type":"uint256"}],"stateMutability":"view","type":"function"},{"inputs":[{"internalType":"address","name":"","type":"address"}],"name":"userRewards","outputs":[{"internalType":"uint256","name":"totalPoints","type":"uint256"},{"internalType":"uint256","name":"bnyRewards","type":"uint256"},{"internalType":"uint256","name":"lastClaimed","type":"uint256"}],"stateMutability":"view","type":"function"}],"evm":{"bytecode":{"linkReferences":{},"object":"608060405234801561001057600080fd5b50611198806100206000396000f3fe608060405234801561001057600080fd5b506004361061009e5760003560e01c80633b431af7116100665780633b431af71461016f5780634ad218211461018b5780634d3820eb146101bf578063d05ba57a146101c9578063e4067f5e146101f95761009e565b80630660f1e8146100a3578063078b0fb7146100d55780630e50cee5146101055780631088ce9014610135578063372500ab14610165575b600080fd5b6100bd60048036038101906100b89190610be4565b610229565b6040516100cc93929190610c2a565b60405180910390f35b6100ef60048036038101906100ea9190610be4565b610253565b6040516100fc9190610cb2565b60405180910390f35b61011f600480360381019061011a9190610be4565b6102ca565b60405161012c9190610ce8565b60405180910390f35b61014f600480360381019061014a9190610be4565b6102ea565b60405161015c9190610d03565b60405180910390f35b61016d610336565b005b61018960048036038101906101849190610d4a565b6104ba565b005b6101a560048036038101906101a09190610be4565b61074e565b6040516101b6959493929190610d9d565b60405180910390f35b6101c7610784565b005b6101e360048036038101906101de9190610be4565b610987565b6040516101f09190610d03565b60405180910390f35b610213600480360381019061020e9190610be4565b6109d3565b6040516102209190610e58565b60405180910390f35b60016020528060005260406000206000915090508060000154908060010154908060020154905083565b61025b610b31565b600160008373ffffffffffffffffffffffffffffffffffffffff1673ffffffffffffffffffffffffffffffffffffffff16815260200190815260200160002060405180606001604052908160008201548152602001600182015481526020016002820154815250509050919050565b60026020528060005260406000206000915054906101000a900460ff1681565b6000600160008373ffffffffffffffffffffffffffffffffffffffff1673ffffffffffffffffffffffffffffffffffffffff168152602001908152602001600020600001549050919050565b600260003373ffffffffffffffffffffffffffffffffffffffff1673ffffffffffffffffffffffffffffffffffffffff16815260200190815260200160002060009054906101000a900460ff166103c2576040517f08c379a00000000000000000000000000000000000000000000000000000000081526004016103b990610ed0565b60405180910390fd5b6000600160003373ffffffffffffffffffffffffffffffffffffffff1673ffffffffffffffffffffffffffffffffffffffff1681526020019081526020016000209050600081600101541161044c576040517f08c379a000000000000000000000000000000000000000000000000000000000815260040161044390610f3c565b60405180910390fd5b600081600101549050600082600101819055504282600201819055503373ffffffffffffffffffffffffffffffffffffffff167ffc30cddea38e2bf4d6ea7d3f9ed3b6ad7f176419f4963bd81318067a4aee73fe826040516104ae9190610d03565b60405180910390a25050565b600260003373ffffffffffffffffffffffffffffffffffffffff1673ffffffffffffffffffffffffffffffffffffffff16815260200190815260200160002060009054906101000a900460ff16610546576040517f08c379a000000000000000000000000000000000000000000000000000000000815260040161053d90610ed0565b60405180910390fd5b60008310158015610558575060008210155b8015610565575060008110155b6105a4576040517f08c379a000000000000000000000000000000000000000000000000000000000815260040161059b90610fa8565b60405180910390fd5b60008060003373ffffffffffffffffffffffffffffffffffffffff1673ffffffffffffffffffffffffffffffffffffffff16815260200190815260200160002090508381600001819055508281600101819055508181600201819055504281600401819055506000610617858585610a5d565b905060006064826106289190611026565b90506000600160003373ffffffffffffffffffffffffffffffffffffffff1673ffffffffffffffffffffffffffffffffffffffff1681526020019081526020016000209050828160000160008282546106819190611057565b925050819055508181600101600082825461069c9190611057565b925050819055503373ffffffffffffffffffffffffffffffffffffffff167f1e27148a3fdc35cd887f2a7bdb9ad4dd1579a8736ee48a1da719061add94111f8888886040516106ed93929190610c2a565b60405180910390a23373ffffffffffffffffffffffffffffffffffffffff167f7e6f83f6b2f229ad07ce108188dc2337a3930ac486da0a1b9172a15a58e871ee848460405161073d92919061108b565b60405180910390a250505050505050565b60006020528060005260406000206000915090508060000154908060010154908060020154908060030154908060040154905085565b600260003373ffffffffffffffffffffffffffffffffffffffff1673ffffffffffffffffffffffffffffffffffffffff16815260200190815260200160002060009054906101000a900460ff1615610811576040517f08c379a000000000000000000000000000000000000000000000000000000000815260040161080890611100565b60405180910390fd5b6001600260003373ffffffffffffffffffffffffffffffffffffffff1673ffffffffffffffffffffffffffffffffffffffff16815260200190815260200160002060006101000a81548160ff0219169083151502179055506040518060a0016040528060008152602001600081526020016000815260200160008152602001428152506000803373ffffffffffffffffffffffffffffffffffffffff1673ffffffffffffffffffffffffffffffffffffffff1681526020019081526020016000206000820151816000015560208201518160010155604082015181600201556060820151816003015560808201518160040155905050604051806060016040528060008152602001600081526020016000815250600160003373ffffffffffffffffffffffffffffffffffffffff1673ffffffffffffffffffffffffffffffffffffffff168152602001908152602001600020600082015181600001556020820151816001015560408201518160020155905050565b6000600160008373ffffffffffffffffffffffffffffffffffffffff1673ffffffffffffffffffffffffffffffffffffffff168152602001908152602001600020600101549050919050565b6109db610b52565b6000808373ffffffffffffffffffffffffffffffffffffffff1673ffffffffffffffffffffffffffffffffffffffff1681526020019081526020016000206040518060a0016040529081600082015481526020016001820154815260200160028201548152602001600382015481526020016004820154815250509050919050565b600080600090506127108510610a8157606481610a7a9190611057565b9050610a9c565b606485610a8e9190611026565b81610a999190611057565b90505b60088410610ab857603281610ab19190611057565b9050610ad3565b600684610ac59190611120565b81610ad09190611057565b90505b60078310158015610ae5575060098311155b15610afe57603281610af79190611057565b9050610b26565b60068310158015610b105750600a8311155b15610b2557601981610b229190611057565b90505b5b809150509392505050565b60405180606001604052806000815260200160008152602001600081525090565b6040518060a0016040528060008152602001600081526020016000815260200160008152602001600081525090565b600080fd5b600073ffffffffffffffffffffffffffffffffffffffff82169050919050565b6000610bb182610b86565b9050919050565b610bc181610ba6565b8114610bcc57600080fd5b50565b600081359050610bde81610bb8565b92915050565b600060208284031215610bfa57610bf9610b81565b5b6000610c0884828501610bcf565b91505092915050565b6000819050919050565b610c2481610c11565b82525050565b6000606082019050610c3f6000830186610c1b565b610c4c6020830185610c1b565b610c596040830184610c1b565b949350505050565b610c6a81610c11565b82525050565b606082016000820151610c866000850182610c61565b506020820151610c996020850182610c61565b506040820151610cac6040850182610c61565b50505050565b6000606082019050610cc76000830184610c70565b92915050565b60008115159050919050565b610ce281610ccd565b82525050565b6000602082019050610cfd6000830184610cd9565b92915050565b6000602082019050610d186000830184610c1b565b92915050565b610d2781610c11565b8114610d3257600080fd5b50565b600081359050610d4481610d1e565b92915050565b600080600060608486031215610d6357610d62610b81565b5b6000610d7186828701610d35565b9350506020610d8286828701610d35565b9250506040610d9386828701610d35565b9150509250925092565b600060a082019050610db26000830188610c1b565b610dbf6020830187610c1b565b610dcc6040830186610c1b565b610dd96060830185610c1b565b610de66080830184610c1b565b9695505050505050565b60a082016000820151610e066000850182610c61565b506020820151610e196020850182610c61565b506040820151610e2c6040850182610c61565b506060820151610e3f6060850182610c61565b506080820151610e526080850182610c61565b50505050565b600060a082019050610e6d6000830184610df0565b92915050565b600082825260208201905092915050565b7f55736572206e6f74207265676973746572656400000000000000000000000000600082015250565b6000610eba601383610e73565b9150610ec582610e84565b602082019050919050565b60006020820190508181036000830152610ee981610ead565b9050919050565b7f4e6f207265776172647320746f20636c61696d00000000000000000000000000600082015250565b6000610f26601383610e73565b9150610f3182610ef0565b602082019050919050565b60006020820190508181036000830152610f5581610f19565b9050919050565b7f496e76616c6964206865616c7468206461746100000000000000000000000000600082015250565b6000610f92601383610e73565b9150610f9d82610f5c565b602082019050919050565b60006020820190508181036000830152610fc181610f85565b9050919050565b7f4e487b7100000000000000000000000000000000000000000000000000000000600052601260045260246000fd5b7f4e487b7100000000000000000000000000000000000000000000000000000000600052601160045260246000fd5b600061103182610c11565b915061103c83610c11565b92508261104c5761104b610fc8565b5b828204905092915050565b600061106282610c11565b915061106d83610c11565b925082820190508082111561108557611084610ff7565b5b92915050565b60006040820190506110a06000830185610c1b565b6110ad6020830184610c1b565b9392505050565b7f5573657220616c72656164792072656769737465726564000000000000000000600082015250565b60006110ea601783610e73565b91506110f5826110b4565b602082019050919050565b60006020820190508181036000830152611119816110dd565b9050919050565b600061112b82610c11565b915061113683610c11565b925082820261114481610c11565b9150828204841483151761115b5761115a610ff7565b5b509291505056fea264697066735822122082da05e7d1f788c3eb8f39fae115d51f179fb8fb891111f91df55b8ad03328ac64736f6c63430008130033","opcodes":"PUSH1 0x80 PUSH1 0x40 MSTORE CALLVALUE DUP1 ISZERO PUSH2 0x10 JUMPI PUSH1 0x0 DUP1 REVERT JUMPDEST POP PUSH2 0x1198 DUP1 PUSH2 0x20 PUSH1 0x0 CODECOPY PUSH1 0x0 RETURN INVALID PUSH1 0x80 PUSH1 0x40 MSTORE CALLVALUE DUP1 ISZERO PUSH2 0x10 JUMPI PUSH1 0x0 DUP1 REVERT JUMPDEST POP PUSH1 0x4 CALLDATASIZE LT PUSH2 0x9E JUMPI PUSH1 0x0 CALLDATALOAD PUSH1 0xE0 SHR DUP1 PUSH4 0x3B431AF7 GT PUSH2 0x66 JUMPI DUP1 PUSH4 0x3B431AF7 EQ PUSH2 0x16F JUMPI DUP1 PUSH4 0x4AD21821 EQ PUSH2 0x18B JUMPI DUP1 PUSH4 0x4D3820EB EQ PUSH2 0x1BF JUMPI DUP1 PUSH4 0xD05BA57A EQ PUSH2 0x1C9 JUMPI DUP1 PUSH4 0xE4067F5E EQ PUSH2 0x1F9 JUMPI PUSH2 0x9E JUMP JUMPDEST DUP1 PUSH4 0x660F1E8 EQ PUSH2 0xA3 JUMPI DUP1 PUSH4 0x78B0FB7 EQ PUSH2 0xD5 JUMPI DUP1 PUSH4 0xE50CEE5 EQ PUSH2 0x105 JUMPI DUP1 PUSH4 0x1088CE90 EQ PUSH2 0x135 JUMPI DUP1 PUSH4 0x372500AB EQ PUSH2 0x165 JUMPI JUMPDEST PUSH1 0x0 DUP1 REVERT JUMPDEST PUSH2 0xBD PUSH1 0x4 DUP1 CALLDATASIZE SUB DUP2 ADD SWAP1 PUSH2 0xB8 SWAP2 SWAP1 PUSH2 0xBE4 JUMP JUMPDEST PUSH2 0x229 JUMP JUMPDEST PUSH1 0x40 MLOAD PUSH2 0xCC SWAP4 SWAP3 SWAP2 SWAP1 PUSH2 0xC2A JUMP JUMPDEST PUSH1 0x40 MLOAD DUP1 SWAP2 SUB SWAP1 RETURN JUMPDEST PUSH2 0xEF PUSH1 0x4 DUP1 CALLDATASIZE SUB DUP2 ADD SWAP1 PUSH2 0xEA SWAP2 SWAP1 PUSH2 0xBE4 JUMP JUMPDEST PUSH2 0x253 JUMP JUMPDEST PUSH1 0x40 MLOAD PUSH2 0xFC SWAP2 SWAP1 PUSH2 0xCB2 JUMP JUMPDEST PUSH1 0x40 MLOAD DUP1 SWAP2 SUB SWAP1 RETURN JUMPDEST PUSH2 0x11F PUSH1 0x4 DUP1 CALLDATASIZE SUB DUP2 ADD SWAP1 PUSH2 0x11A SWAP2 SWAP1 PUSH2 0xBE4 JUMP JUMPDEST PUSH2 0x2CA JUMP JUMPDEST PUSH1 0x40 MLOAD PUSH2 0x12C SWAP2 SWAP1 PUSH2 0xCE8 JUMP JUMPDEST PUSH1 0x40 MLOAD DUP1 SWAP2 SUB SWAP1 RETURN JUMPDEST PUSH2 0x14F PUSH1 0x4 DUP1 CALLDATASIZE SUB DUP2 ADD SWAP1 PUSH2 0x14A SWAP2 SWAP1 PUSH2 0xBE4 JUMP JUMPDEST PUSH2 0x2EA JUMP JUMPDEST PUSH1 0x40 MLOAD PUSH2 0x15C SWAP2 SWAP1 PUSH2 0xD03 JUMP JUMPDEST PUSH1 0x40 MLOAD DUP1 SWAP2 SUB SWAP1 RETURN JUMPDEST PUSH2 0x16D PUSH2 0x336 JUMP JUMPDEST STOP JUMPDEST PUSH2 0x189 PUSH1 0x4 DUP1 CALLDATASIZE SUB DUP2 ADD SWAP1 PUSH2 0x184 SWAP2 SWAP1 PUSH2 0xD4A JUMP JUMPDEST PUSH2 0x4BA JUMP JUMPDEST STOP JUMPDEST PUSH2 0x1A5 PUSH1 0x4 DUP1 CALLDATASIZE SUB DUP2 ADD SWAP1 PUSH2 0x1A0 SWAP2 SWAP1 PUSH2 0xBE4 JUMP JUMPDEST PUSH2 0x74E JUMP JUMPDEST PUSH1 0x40 MLOAD PUSH2 0x1B6 SWAP6 SWAP5 SWAP4 SWAP3 SWAP2 SWAP1 PUSH2 0xD9D JUMP JUMPDEST PUSH1 0x40 MLOAD DUP1 SWAP2 SUB SWAP1 RETURN JUMPDEST PUSH2 0x1C7 PUSH2 0x784 JUMP JUMPDEST STOP JUMPDEST PUSH2 0x1E3 PUSH1 0x4 DUP1 CALLDATASIZE SUB DUP2 ADD SWAP1 PUSH2 0x1DE SWAP2 SWAP1 PUSH2 0xBE4 JUMP JUMPDEST PUSH2 0x987 JUMP JUMPDEST PUSH1 0x40 MLOAD PUSH2 0x1F0 SWAP2 SWAP1 PUSH2 0xD03 JUMP JUMPDEST PUSH1 0x40 MLOAD DUP1 SWAP2 SUB SWAP1 RETURN JUMPDEST PUSH2 0x213 PUSH1 0x4 DUP1 CALLDATASIZE SUB DUP2 ADD SWAP1 PUSH2 0x20E SWAP2 SWAP1 PUSH2 0xBE4 JUMP JUMPDEST PUSH2 0x9D3 JUMP JUMPDEST PUSH1 0x40 MLOAD PUSH2 0x220 SWAP2 SWAP1 PUSH2 0xE58 JUMP JUMPDEST PUSH1 0x40 MLOAD DUP1 SWAP2 SUB SWAP1 RETURN JUMPDEST PUSH1 0x1 PUSH1 0x20 MSTORE DUP1 PUSH1 0x0 MSTORE PUSH1 0x40 PUSH1 0x0 KECCAK256 PUSH1 0x0 SWAP2 POP SWAP1 POP DUP1 PUSH1 0x0 ADD SLOAD SWAP1 DUP1 PUSH1 0x1 ADD SLOAD SWAP1 DUP1 PUSH1 0x2 ADD SLOAD SWAP1 POP DUP4 JUMP JUMPDEST PUSH2 0x25B PUSH2 0xB31 JUMP JUMPDEST PUSH1 0x1 PUSH1 0x0 DUP4 PUSH20 0xFFFFFFFFFFFFFFFFFFFFFFFFFFFFFFFFFFFFFFFF AND PUSH20 0xFFFFFFFFFFFFFFFFFFFFFFFFFFFFFFFFFFFFFFFF AND DUP2 MSTORE PUSH1 0x20 ADD SWAP1 DUP2 MSTORE PUSH1 0x20 ADD PUSH1 0x0 KECCAK256 PUSH1 0x40 MLOAD DUP1 PUSH1 0x60 ADD PUSH1 0x40 MSTORE SWAP1 DUP2 PUSH1 0x0 DUP3 ADD SLOAD DUP2 MSTORE PUSH1 0x20 ADD PUSH1 0x1 DUP3 ADD SLOAD DUP2 MSTORE PUSH1 0x20 ADD PUSH1 0x2 DUP3 ADD SLOAD DUP2 MSTORE POP POP SWAP1 POP SWAP2 SWAP1 POP JUMP JUMPDEST PUSH1 0x2 PUSH1 0x20 MSTORE DUP1 PUSH1 0x0 MSTORE PUSH1 0x40 PUSH1 0x0 KECCAK256 PUSH1 0x0 SWAP2 POP SLOAD SWAP1 PUSH2 0x100 EXP SWAP1 DIV PUSH1 0xFF AND DUP2 JUMP JUMPDEST PUSH1 0x0 PUSH1 0x1 PUSH1 0x0 DUP4 PUSH20 0xFFFFFFFFFFFFFFFFFFFFFFFFFFFFFFFFFFFFFFFF AND PUSH20 0xFFFFFFFFFFFFFFFFFFFFFFFFFFFFFFFFFFFFFFFF AND DUP2 MSTORE PUSH1 0x20 ADD SWAP1 DUP2 MSTORE PUSH1 0x20 ADD PUSH1 0x0 KECCAK256 PUSH1 0x0 ADD SLOAD SWAP1 POP SWAP2 SWAP1 POP JUMP JUMPDEST PUSH1 0x2 PUSH1 0x0 CALLER PUSH20 0xFFFFFFFFFFFFFFFFFFFFFFFFFFFFFFFFFFFFFFFF AND PUSH20 0xFFFFFFFFFFFFFFFFFFFFFFFFFFFFFFFFFFFFFFFF AND DUP2 MSTORE PUSH1 0x20 ADD SWAP1 DUP2 MSTORE PUSH1 0x20 ADD PUSH1 0x0 KECCAK256 PUSH1 0x0 SWAP1 SLOAD SWAP1 PUSH2 0x100 EXP SWAP1 DIV PUSH1 0xFF AND PUSH2 0x3C2 JUMPI PUSH1 0x40 MLOAD PUSH32 0x8C379A000000000000000000000000000000000000000000000000000000000 DUP2 MSTORE PUSH1 0x4 ADD PUSH2 0x3B9 SWAP1 PUSH2 0xED0 JUMP JUMPDEST PUSH1 0x40 MLOAD DUP1 SWAP2 SUB SWAP1 REVERT JUMPDEST PUSH1 0x0 PUSH1 0x1 PUSH1 0x0 CALLER PUSH20 0xFFFFFFFFFFFFFFFFFFFFFFFFFFFFFFFFFFFFFFFF AND PUSH20 0xFFFFFFFFFFFFFFFFFFFFFFFFFFFFFFFFFFFFFFFF AND DUP2 MSTORE PUSH1 0x20 ADD SWAP1 DUP2 MSTORE PUSH1 0x20 ADD PUSH1 0x0 KECCAK256 SWAP1 POP PUSH1 0x0 DUP2 PUSH1 0x1 ADD SLOAD GT PUSH2 0x44C JUMPI PUSH1 0x40 MLOAD PUSH32 0x8C379A000000000000000000000000000000000000000000000000000000000 DUP2 MSTORE PUSH1 0x4 ADD PUSH2 0x443 SWAP1 PUSH2 0xF3C JUMP JUMPDEST PUSH1 0x40 MLOAD DUP1 SWAP2 SUB SWAP1 REVERT JUMPDEST PUSH1 0x0 DUP2 PUSH1 0x1 ADD SLOAD SWAP1 POP PUSH1 0x0 DUP3 PUSH1 0x1 ADD DUP2 SWAP1 SSTORE POP TIMESTAMP DUP3 PUSH1 0x2 ADD DUP2 SWAP1 SSTORE POP CALLER PUSH20 0xFFFFFFFFFFFFFFFFFFFFFFFFFFFFFFFFFFFFFFFF AND PUSH32 0xFC30CDDEA38E2BF4D6EA7D3F9ED3B6AD7F176419F4963BD81318067A4AEE73FE DUP3 PUSH1 0x40 MLOAD PUSH2 0x4AE SWAP2 SWAP1 PUSH2 0xD03 JUMP JUMPDEST PUSH1 0x40 MLOAD DUP1 SWAP2 SUB SWAP1 LOG2 POP POP JUMP JUMPDEST PUSH1 0x2 PUSH1 0x0 CALLER PUSH20 0xFFFFFFFFFFFFFFFFFFFFFFFFFFFFFFFFFFFFFFFF AND PUSH20 0xFFFFFFFFFFFFFFFFFFFFFFFFFFFFFFFFFFFFFFFF AND DUP2 MSTORE PUSH1 0x20 ADD SWAP1 DUP2 MSTORE PUSH1 0x20 ADD PUSH1 0x0 KECCAK256 PUSH1 0x0 SWAP1 SLOAD SWAP1 PUSH2 0x100 EXP SWAP1 DIV PUSH1 0xFF AND PUSH2 0x546 JUMPI PUSH1 0x40 MLOAD PUSH32 0x8C379A000000000000000000000000000000000000000000000000000000000 DUP2 MSTORE PUSH1 0x4 ADD PUSH2 0x53D SWAP1 PUSH2 0xED0 JUMP JUMPDEST PUSH1 0x40 MLOAD DUP1 SWAP2 SUB SWAP1 REVERT JUMPDEST PUSH1 0x0 DUP4 LT ISZERO DUP1 ISZERO PUSH2 0x558 JUMPI POP PUSH1 0x0 DUP3 LT ISZERO JUMPDEST DUP1 ISZERO PUSH2 0x565 JUMPI POP PUSH1 0x0 DUP2 LT ISZERO JUMPDEST PUSH2 0x5A4 JUMPI PUSH1 0x40 MLOAD PUSH32 0x8C379A000000000000000000000000000000000000000000000000000000000 DUP2 MSTORE PUSH1 0x4 ADD PUSH2 0x59B SWAP1 PUSH2 0xFA8 JUMP JUMPDEST PUSH1 0x40 MLOAD DUP1 SWAP2 SUB SWAP1 REVERT JUMPDEST PUSH1 0x0 DUP1 PUSH1 0x0 CALLER PUSH20 0xFFFFFFFFFFFFFFFFFFFFFFFFFFFFFFFFFFFFFFFF AND PUSH20 0xFFFFFFFFFFFFFFFFFFFFFFFFFFFFFFFFFFFFFFFF AND DUP2 MSTORE PUSH1 0x20 ADD SWAP1 DUP2 MSTORE PUSH1 0x20 ADD PUSH1 0x0 KECCAK256 SWAP1 POP DUP4 DUP2 PUSH1 0x0 ADD DUP2 SWAP1 SSTORE POP DUP3 DUP2 PUSH1 0x1 ADD DUP2 SWAP1 SSTORE POP DUP2 DUP2 PUSH1 0x2 ADD DUP2 SWAP1 SSTORE POP TIMESTAMP DUP2 PUSH1 0x4 ADD DUP2 SWAP1 SSTORE POP PUSH1 0x0 PUSH2 0x617 DUP6 DUP6 DUP6 PUSH2 0xA5D JUMP JUMPDEST SWAP1 POP PUSH1 0x0 PUSH1 0x64 DUP3 PUSH2 0x628 SWAP2 SWAP1 PUSH2 0x1026 JUMP JUMPDEST SWAP1 POP PUSH1 0x0 PUSH1 0x1 PUSH1 0x0 CALLER PUSH20 0xFFFFFFFFFFFFFFFFFFFFFFFFFFFFFFFFFFFFFFFF AND PUSH20 0xFFFFFFFFFFFFFFFFFFFFFFFFFFFFFFFFFFFFFFFF AND DUP2 MSTORE PUSH1 0x20 ADD SWAP1 DUP2 MSTORE PUSH1 0x20 ADD PUSH1 0x0 KECCAK256 SWAP1 POP DUP3 DUP2 PUSH1 0x0 ADD PUSH1 0x0 DUP3 DUP3 SLOAD PUSH2 0x681 SWAP2 SWAP1 PUSH2 0x1057 JUMP JUMPDEST SWAP3 POP POP DUP2 SWAP1 SSTORE POP DUP2 DUP2 PUSH1 0x1 ADD PUSH1 0x0 DUP3 DUP3 SLOAD PUSH2 0x69C SWAP2 SWAP1 PUSH2 0x1057 JUMP JUMPDEST SWAP3 POP POP DUP2 SWAP1 SSTORE POP CALLER PUSH20 0xFFFFFFFFFFFFFFFFFFFFFFFFFFFFFFFFFFFFFFFF AND PUSH32 0x1E27148A3FDC35CD887F2A7BDB9AD4DD1579A8736EE48A1DA719061ADD94111F DUP9 DUP9 DUP9 PUSH1 0x40 MLOAD PUSH2 0x6ED SWAP4 SWAP3 SWAP2 SWAP1 PUSH2 0xC2A JUMP JUMPDEST PUSH1 0x40 MLOAD DUP1 SWAP2 SUB SWAP1 LOG2 CALLER PUSH20 0xFFFFFFFFFFFFFFFFFFFFFFFFFFFFFFFFFFFFFFFF AND PUSH32 0x7E6F83F6B2F229AD07CE108188DC2337A3930AC486DA0A1B9172A15A58E871EE DUP5 DUP5 PUSH1 0x40 MLOAD PUSH2 0x73D SWAP3 SWAP2 SWAP1 PUSH2 0x108B JUMP JUMPDEST PUSH1 0x40 MLOAD DUP1 SWAP2 SUB SWAP1 LOG2 POP POP POP POP POP POP POP JUMP JUMPDEST PUSH1 0x0 PUSH1 0x20 MSTORE DUP1 PUSH1 0x0 MSTORE PUSH1 0x40 PUSH1 0x0 KECCAK256 PUSH1 0x0 SWAP2 POP SWAP1 POP DUP1 PUSH1 0x0 ADD SLOAD SWAP1 DUP1 PUSH1 0x1 ADD SLOAD SWAP1 DUP1 PUSH1 0x2 ADD SLOAD SWAP1 DUP1 PUSH1 0x3 ADD SLOAD SWAP1 DUP1 PUSH1 0x4 ADD SLOAD SWAP1 POP DUP6 JUMP JUMPDEST PUSH1 0x2 PUSH1 0x0 CALLER PUSH20 0xFFFFFFFFFFFFFFFFFFFFFFFFFFFFFFFFFFFFFFFF AND PUSH20 0xFFFFFFFFFFFFFFFFFFFFFFFFFFFFFFFFFFFFFFFF AND DUP2 MSTORE PUSH1 0x20 ADD SWAP1 DUP2 MSTORE PUSH1 0x20 ADD PUSH1 0x0 KECCAK256 PUSH1 0x0 SWAP1 SLOAD SWAP1 PUSH2 0x100 EXP SWAP1 DIV PUSH1 0xFF AND ISZERO PUSH2 0x811 JUMPI PUSH1 0x40 MLOAD PUSH32 0x8C379A000000000000000000000000000000000000000000000000000000000 DUP2 MSTORE PUSH1 0x4 ADD PUSH2 0x808 SWAP1 PUSH2 0x1100 JUMP JUMPDEST PUSH1 0x40 MLOAD DUP1 SWAP2 SUB SWAP1 REVERT JUMPDEST PUSH1 0x1 PUSH1 0x2 PUSH1 0x0 CALLER PUSH20 0xFFFFFFFFFFFFFFFFFFFFFFFFFFFFFFFFFFFFFFFF AND PUSH20 0xFFFFFFFFFFFFFFFFFFFFFFFFFFFFFFFFFFFFFFFF AND DUP2 MSTORE PUSH1 0x20 ADD SWAP1 DUP2 MSTORE PUSH1 0x20 ADD PUSH1 0x0 KECCAK256 PUSH1 0x0 PUSH2 0x100 EXP DUP2 SLOAD DUP2 PUSH1 0xFF MUL NOT AND SWAP1 DUP4 ISZERO ISZERO MUL OR SWAP1 SSTORE POP PUSH1 0x40 MLOAD DUP1 PUSH1 0xA0 ADD PUSH1 0x40 MSTORE DUP1 PUSH1 0x0 DUP2 MSTORE PUSH1 0x20 ADD PUSH1 0x0 DUP2 MSTORE PUSH1 0x20 ADD PUSH1 0x0 DUP2 MSTORE PUSH1 0x20 ADD PUSH1 0x0 DUP2 MSTORE PUSH1 0x20 ADD TIMESTAMP DUP2 MSTORE POP PUSH1 0x0 DUP1 CALLER PUSH20 0xFFFFFFFFFFFFFFFFFFFFFFFFFFFFFFFFFFFFFFFF AND PUSH20 0xFFFFFFFFFFFFFFFFFFFFFFFFFFFFFFFFFFFFFFFF AND DUP2 MSTORE PUSH1 0x20 ADD SWAP1 DUP2 MSTORE PUSH1 0x20 ADD PUSH1 0x0 KECCAK256 PUSH1 0x0 DUP3 ADD MLOAD DUP2 PUSH1 0x0 ADD SSTORE PUSH1 0x20 DUP3 ADD MLOAD DUP2 PUSH1 0x1 ADD SSTORE PUSH1 0x40 DUP3 ADD MLOAD DUP2 PUSH1 0x2 ADD SSTORE PUSH1 0x60 DUP3 ADD MLOAD DUP2 PUSH1 0x3 ADD SSTORE PUSH1 0x80 DUP3 ADD MLOAD DUP2 PUSH1 0x4 ADD SSTORE SWAP1 POP POP PUSH1 0x40 MLOAD DUP1 PUSH1 0x60 ADD PUSH1 0x40 MSTORE DUP1 PUSH1 0x0 DUP2 MSTORE PUSH1 0x20 ADD PUSH1 0x0 DUP2 MSTORE PUSH1 0x20 ADD PUSH1 0x0 DUP2 MSTORE POP PUSH1 0x1 PUSH1 0x0 CALLER PUSH20 0xFFFFFFFFFFFFFFFFFFFFFFFFFFFFFFFFFFFFFFFF AND PUSH20 0xFFFFFFFFFFFFFFFFFFFFFFFFFFFFFFFFFFFFFFFF AND DUP2 MSTORE PUSH1 0x20 ADD SWAP1 DUP2 MSTORE PUSH1 0x20 ADD PUSH1 0x0 KECCAK256 PUSH1 0x0 DUP3 ADD MLOAD DUP2 PUSH1 0x0 ADD SSTORE PUSH1 0x20 DUP3 ADD MLOAD DUP2 PUSH1 0x1 ADD SSTORE PUSH1 0x40 DUP3 ADD MLOAD DUP2 PUSH1 0x2 ADD SSTORE SWAP1 POP POP JUMP JUMPDEST PUSH1 0x0 PUSH1 0x1 PUSH1 0x0 DUP4 PUSH20 0xFFFFFFFFFFFFFFFFFFFFFFFFFFFFFFFFFFFFFFFF AND PUSH20 0xFFFFFFFFFFFFFFFFFFFFFFFFFFFFFFFFFFFFFFFF AND DUP2 MSTORE PUSH1 0x20 ADD SWAP1 DUP2 MSTORE PUSH1 0x20 ADD PUSH1 0x0 KECCAK256 PUSH1 0x1 ADD SLOAD SWAP1 POP SWAP2 SWAP1 POP JUMP JUMPDEST PUSH2 0x9DB PUSH2 0xB52 JUMP JUMPDEST PUSH1 0x0 DUP1 DUP4 PUSH20 0xFFFFFFFFFFFFFFFFFFFFFFFFFFFFFFFFFFFFFFFF AND PUSH20 0xFFFFFFFFFFFFFFFFFFFFFFFFFFFFFFFFFFFFFFFF AND DUP2 MSTORE PUSH1 0x20 ADD SWAP1 DUP2 MSTORE PUSH1 0x20 ADD PUSH1 0x0 KECCAK256 PUSH1 0x40 MLOAD DUP1 PUSH1 0xA0 ADD PUSH1 0x40 MSTORE SWAP1 DUP2 PUSH1 0x0 DUP3 ADD SLOAD DUP2 MSTORE PUSH1 0x20 ADD PUSH1 0x1 DUP3 ADD SLOAD DUP2 MSTORE PUSH1 0x20 ADD PUSH1 0x2 DUP3 ADD SLOAD DUP2 MSTORE PUSH1 0x20 ADD PUSH1 0x3 DUP3 ADD SLOAD DUP2 MSTORE PUSH1 0x20 ADD PUSH1 0x4 DUP3 ADD SLOAD DUP2 MSTORE POP POP SWAP1 POP SWAP2 SWAP1 POP JUMP JUMPDEST PUSH1 0x0 DUP1 PUSH1 0x0 SWAP1 POP PUSH2 0x2710 DUP6 LT PUSH2 0xA81 JUMPI PUSH1 0x64 DUP2 PUSH2 0xA7A SWAP2 SWAP1 PUSH2 0x1057 JUMP JUMPDEST SWAP1 POP PUSH2 0xA9C JUMP JUMPDEST PUSH1 0x64 DUP6 PUSH2 0xA8E SWAP2 SWAP1 PUSH2 0x1026 JUMP JUMPDEST DUP2 PUSH2 0xA99 SWAP2 SWAP1 PUSH2 0x1057 JUMP JUMPDEST SWAP1 POP JUMPDEST PUSH1 0x8 DUP5 LT PUSH2 0xAB8 JUMPI PUSH1 0x32 DUP2 PUSH2 0xAB1 SWAP2 SWAP1 PUSH2 0x1057 JUMP JUMPDEST SWAP1 POP PUSH2 0xAD3 JUMP JUMPDEST PUSH1 0x6 DUP5 PUSH2 0xAC5 SWAP2 SWAP1 PUSH2 0x1120 JUMP JUMPDEST DUP2 PUSH2 0xAD0 SWAP2 SWAP1 PUSH2 0x1057 JUMP JUMPDEST SWAP1 POP JUMPDEST PUSH1 0x7 DUP4 LT ISZERO DUP1 ISZERO PUSH2 0xAE5 JUMPI POP PUSH1 0x9 DUP4 GT ISZERO JUMPDEST ISZERO PUSH2 0xAFE JUMPI PUSH1 0x32 DUP2 PUSH2 0xAF7 SWAP2 SWAP1 PUSH2 0x1057 JUMP JUMPDEST SWAP1 POP PUSH2 0xB26 JUMP JUMPDEST PUSH1 0x6 DUP4 LT ISZERO DUP1 ISZERO PUSH2 0xB10 JUMPI POP PUSH1 0xA DUP4 GT ISZERO JUMPDEST ISZERO PUSH2 0xB25 JUMPI PUSH1 0x19 DUP2 PUSH2 0xB22 SWAP2 SWAP1 PUSH2 0x1057 JUMP JUMPDEST SWAP1 POP JUMPDEST JUMPDEST DUP1 SWAP2 POP POP SWAP4 SWAP3 POP POP POP JUMP JUMPDEST PUSH1 0x40 MLOAD DUP1 PUSH1 0x60 ADD PUSH1 0x40 MSTORE DUP1 PUSH1 0x0 DUP2 MSTORE PUSH1 0x20 ADD PUSH1 0x0 DUP2 MSTORE PUSH1 0x20 ADD PUSH1 0x0 DUP2 MSTORE POP SWAP1 JUMP JUMPDEST PUSH1 0x40 MLOAD DUP1 PUSH1 0xA0 ADD PUSH1 0x40 MSTORE DUP1 PUSH1 0x0 DUP2 MSTORE PUSH1 0x20 ADD PUSH1 0x0 DUP2 MSTORE PUSH1 0x20 ADD PUSH1 0x0 DUP2 MSTORE PUSH1 0x20 ADD PUSH1 0x0 DUP2 MSTORE PUSH1 0x20 ADD PUSH1 0x0 DUP2 MSTORE POP SWAP1 JUMP JUMPDEST PUSH1 0x0 DUP1 REVERT JUMPDEST PUSH1 0x0 PUSH20 0xFFFFFFFFFFFFFFFFFFFFFFFFFFFFFFFFFFFFFFFF DUP3 AND SWAP1 POP SWAP2 SWAP1 POP JUMP JUMPDEST PUSH1 0x0 PUSH2 0xBB1 DUP3 PUSH2 0xB86 JUMP JUMPDEST SWAP1 POP SWAP2 SWAP1 POP JUMP JUMPDEST PUSH2 0xBC1 DUP2 PUSH2 0xBA6 JUMP JUMPDEST DUP2 EQ PUSH2 0xBCC JUMPI PUSH1 0x0 DUP1 REVERT JUMPDEST POP JUMP JUMPDEST PUSH1 0x0 DUP2 CALLDATALOAD SWAP1 POP PUSH2 0xBDE DUP2 PUSH2 0xBB8 JUMP JUMPDEST SWAP3 SWAP2 POP POP JUMP JUMPDEST PUSH1 0x0 PUSH1 0x20 DUP3 DUP5 SUB SLT ISZERO PUSH2 0xBFA JUMPI PUSH2 0xBF9 PUSH2 0xB81 JUMP JUMPDEST JUMPDEST PUSH1 0x0 PUSH2 0xC08 DUP5 DUP3 DUP6 ADD PUSH2 0xBCF JUMP JUMPDEST SWAP2 POP POP SWAP3 SWAP2 POP POP JUMP JUMPDEST PUSH1 0x0 DUP2 SWAP1 POP SWAP2 SWAP1 POP JUMP JUMPDEST PUSH2 0xC24 DUP2 PUSH2 0xC11 JUMP JUMPDEST DUP3 MSTORE POP POP JUMP JUMPDEST PUSH1 0x0 PUSH1 0x60 DUP3 ADD SWAP1 POP PUSH2 0xC3F PUSH1 0x0 DUP4 ADD DUP7 PUSH2 0xC1B JUMP JUMPDEST PUSH2 0xC4C PUSH1 0x20 DUP4 ADD DUP6 PUSH2 0xC1B JUMP JUMPDEST PUSH2 0xC59 PUSH1 0x40 DUP4 ADD DUP5 PUSH2 0xC1B JUMP JUMPDEST SWAP5 SWAP4 POP POP POP POP JUMP JUMPDEST PUSH2 0xC6A DUP2 PUSH2 0xC11 JUMP JUMPDEST DUP3 MSTORE POP POP JUMP JUMPDEST PUSH1 0x60 DUP3 ADD PUSH1 0x0 DUP3 ADD MLOAD PUSH2 0xC86 PUSH1 0x0 DUP6 ADD DUP3 PUSH2 0xC61 JUMP JUMPDEST POP PUSH1 0x20 DUP3 ADD MLOAD PUSH2 0xC99 PUSH1 0x20 DUP6 ADD DUP3 PUSH2 0xC61 JUMP JUMPDEST POP PUSH1 0x40 DUP3 ADD MLOAD PUSH2 0xCAC PUSH1 0x40 DUP6 ADD DUP3 PUSH2 0xC61 JUMP JUMPDEST POP POP POP POP JUMP JUMPDEST PUSH1 0x0 PUSH1 0x60 DUP3 ADD SWAP1 POP PUSH2 0xCC7 PUSH1 0x0 DUP4 ADD DUP5 PUSH2 0xC70 JUMP JUMPDEST SWAP3 SWAP2 POP POP JUMP JUMPDEST PUSH1 0x0 DUP2 ISZERO ISZERO SWAP1 POP SWAP2 SWAP1 POP JUMP JUMPDEST PUSH2 0xCE2 DUP2 PUSH2 0xCCD JUMP JUMPDEST DUP3 MSTORE POP POP JUMP JUMPDEST PUSH1 0x0 PUSH1 0x20 DUP3 ADD SWAP1 POP PUSH2 0xCFD PUSH1 0x0 DUP4 ADD DUP5 PUSH2 0xCD9 JUMP JUMPDEST SWAP3 SWAP2 POP POP JUMP JUMPDEST PUSH1 0x0 PUSH1 0x20 DUP3 ADD SWAP1 POP PUSH2 0xD18 PUSH1 0x0 DUP4 ADD DUP5 PUSH2 0xC1B JUMP JUMPDEST SWAP3 SWAP2 POP POP JUMP JUMPDEST PUSH2 0xD27 DUP2 PUSH2 0xC11 JUMP JUMPDEST DUP2 EQ PUSH2 0xD32 JUMPI PUSH1 0x0 DUP1 REVERT JUMPDEST POP JUMP JUMPDEST PUSH1 0x0 DUP2 CALLDATALOAD SWAP1 POP PUSH2 0xD44 DUP2 PUSH2 0xD1E JUMP JUMPDEST SWAP3 SWAP2 POP POP JUMP JUMPDEST PUSH1 0x0 DUP1 PUSH1 0x0 PUSH1 0x60 DUP5 DUP7 SUB SLT ISZERO PUSH2 0xD63 JUMPI PUSH2 0xD62 PUSH2 0xB81 JUMP JUMPDEST JUMPDEST PUSH1 0x0 PUSH2 0xD71 DUP7 DUP3 DUP8 ADD PUSH2 0xD35 JUMP JUMPDEST SWAP4 POP POP PUSH1 0x20 PUSH2 0xD82 DUP7 DUP3 DUP8 ADD PUSH2 0xD35 JUMP JUMPDEST SWAP3 POP POP PUSH1 0x40 PUSH2 0xD93 DUP7 DUP3 DUP8 ADD PUSH2 0xD35 JUMP JUMPDEST SWAP2 POP POP SWAP3 POP SWAP3 POP SWAP3 JUMP JUMPDEST PUSH1 0x0 PUSH1 0xA0 DUP3 ADD SWAP1 POP PUSH2 0xDB2 PUSH1 0x0 DUP4 ADD DUP9 PUSH2 0xC1B JUMP JUMPDEST PUSH2 0xDBF PUSH1 0x20 DUP4 ADD DUP8 PUSH2 0xC1B JUMP JUMPDEST PUSH2 0xDCC PUSH1 0x40 DUP4 ADD DUP7 PUSH2 0xC1B JUMP JUMPDEST PUSH2 0xDD9 PUSH1 0x60 DUP4 ADD DUP6 PUSH2 0xC1B JUMP JUMPDEST PUSH2 0xDE6 PUSH1 0x80 DUP4 ADD DUP5 PUSH2 0xC1B JUMP JUMPDEST SWAP7 SWAP6 POP POP POP POP POP POP JUMP JUMPDEST PUSH1 0xA0 DUP3 ADD PUSH1 0x0 DUP3 ADD MLOAD PUSH2 0xE06 PUSH1 0x0 DUP6 ADD DUP3 PUSH2 0xC61 JUMP JUMPDEST POP PUSH1 0x20 DUP3 ADD MLOAD PUSH2 0xE19 PUSH1 0x20 DUP6 ADD DUP3 PUSH2 0xC61 JUMP JUMPDEST POP PUSH1 0x40 DUP3 ADD MLOAD PUSH2 0xE2C PUSH1 0x40 DUP6 ADD DUP3 PUSH2 0xC61 JUMP JUMPDEST POP PUSH1 0x60 DUP3 ADD MLOAD PUSH2 0xE3F PUSH1 0x60 DUP6 ADD DUP3 PUSH2 0xC61 JUMP JUMPDEST POP PUSH1 0x80 DUP3 ADD MLOAD PUSH2 0xE52 PUSH1 0x80 DUP6 ADD DUP3 PUSH2 0xC61 JUMP JUMPDEST POP POP POP POP JUMP JUMPDEST PUSH1 0x0 PUSH1 0xA0 DUP3 ADD SWAP1 POP PUSH2 0xE6D PUSH1 0x0 DUP4 ADD DUP5 PUSH2 0xDF0 JUMP JUMPDEST SWAP3 SWAP2 POP POP JUMP JUMPDEST PUSH1 0x0 DUP3 DUP3 MSTORE PUSH1 0x20 DUP3 ADD SWAP1 POP SWAP3 SWAP2 POP POP JUMP JUMPDEST PUSH32 0x55736572206E6F74207265676973746572656400000000000000000000000000 PUSH1 0x0 DUP3 ADD MSTORE POP JUMP JUMPDEST PUSH1 0x0 PUSH2 0xEBA PUSH1 0x13 DUP4 PUSH2 0xE73 JUMP JUMPDEST SWAP2 POP PUSH2 0xEC5 DUP3 PUSH2 0xE84 JUMP JUMPDEST PUSH1 0x20 DUP3 ADD SWAP1 POP SWAP2 SWAP1 POP JUMP JUMPDEST PUSH1 0x0 PUSH1 0x20 DUP3 ADD SWAP1 POP DUP2 DUP2 SUB PUSH1 0x0 DUP4 ADD MSTORE PUSH2 0xEE9 DUP2 PUSH2 0xEAD JUMP JUMPDEST SWAP1 POP SWAP2 SWAP1 POP JUMP JUMPDEST PUSH32 0x4E6F207265776172647320746F20636C61696D00000000000000000000000000 PUSH1 0x0 DUP3 ADD MSTORE POP JUMP JUMPDEST PUSH1 0x0 PUSH2 0xF26 PUSH1 0x13 DUP4 PUSH2 0xE73 JUMP JUMPDEST SWAP2 POP PUSH2 0xF31 DUP3 PUSH2 0xEF0 JUMP JUMPDEST PUSH1 0x20 DUP3 ADD SWAP1 POP SWAP2 SWAP1 POP JUMP JUMPDEST PUSH1 0x0 PUSH1 0x20 DUP3 ADD SWAP1 POP DUP2 DUP2 SUB PUSH1 0x0 DUP4 ADD MSTORE PUSH2 0xF55 DUP2 PUSH2 0xF19 JUMP JUMPDEST SWAP1 POP SWAP2 SWAP1 POP JUMP JUMPDEST PUSH32 0x496E76616C6964206865616C7468206461746100000000000000000000000000 PUSH1 0x0 DUP3 ADD MSTORE POP JUMP JUMPDEST PUSH1 0x0 PUSH2 0xF92 PUSH1 0x13 DUP4 PUSH2 0xE73 JUMP JUMPDEST SWAP2 POP PUSH2 0xF9D DUP3 PUSH2 0xF5C JUMP JUMPDEST PUSH1 0x20 DUP3 ADD SWAP1 POP SWAP2 SWAP1 POP JUMP JUMPDEST PUSH1 0x0 PUSH1 0x20 DUP3 ADD SWAP1 POP DUP2 DUP2 SUB PUSH1 0x0 DUP4 ADD MSTORE PUSH2 0xFC1 DUP2 PUSH2 0xF85 JUMP JUMPDEST SWAP1 POP SWAP2 SWAP1 POP JUMP JUMPDEST PUSH32 0x4E487B7100000000000000000000000000000000000000000000000000000000 PUSH1 0x0 MSTORE PUSH1 0x12 PUSH1 0x4 MSTORE PUSH1 0x24 PUSH1 0x0 REVERT JUMPDEST PUSH32 0x4E487B7100000000000000000000000000000000000000000000000000000000 PUSH1 0x0 MSTORE PUSH1 0x11 PUSH1 0x4 MSTORE PUSH1 0x24 PUSH1 0x0 REVERT JUMPDEST PUSH1 0x0 PUSH2 0x1031 DUP3 PUSH2 0xC11 JUMP JUMPDEST SWAP2 POP PUSH2 0x103C DUP4 PUSH2 0xC11 JUMP JUMPDEST SWAP3 POP DUP3 PUSH2 0x104C JUMPI PUSH2 0x104B PUSH2 0xFC8 JUMP JUMPDEST JUMPDEST DUP3 DUP3 DIV SWAP1 POP SWAP3 SWAP2 POP POP JUMP JUMPDEST PUSH1 0x0 PUSH2 0x1062 DUP3 PUSH2 0xC11 JUMP JUMPDEST SWAP2 POP PUSH2 0x106D DUP4 PUSH2 0xC11 JUMP JUMPDEST SWAP3 POP DUP3 DUP3 ADD SWAP1 POP DUP1 DUP3 GT ISZERO PUSH2 0x1085 JUMPI PUSH2 0x1084 PUSH2 0xFF7 JUMP JUMPDEST JUMPDEST SWAP3 SWAP2 POP POP JUMP JUMPDEST PUSH1 0x0 PUSH1 0x40 DUP3 ADD SWAP1 POP PUSH2 0x10A0 PUSH1 0x0 DUP4 ADD DUP6 PUSH2 0xC1B JUMP JUMPDEST PUSH2 0x10AD PUSH1 0x20 DUP4 ADD DUP5 PUSH2 0xC1B JUMP JUMPDEST SWAP4 SWAP3 POP POP POP JUMP JUMPDEST PUSH32 0x5573657220616C72656164792072656769737465726564000000000000000000 PUSH1 0x0 DUP3 ADD MSTORE POP JUMP JUMPDEST PUSH1 0x0 PUSH2 0x10EA PUSH1 0x17 DUP4 PUSH2 0xE73 JUMP JUMPDEST SWAP2 POP PUSH2 0x10F5 DUP3 PUSH2 0x10B4 JUMP JUMPDEST PUSH1 0x20 DUP3 ADD SWAP1 POP SWAP2 SWAP1 POP JUMP JUMPDEST PUSH1 0x0 PUSH1 0x20 DUP3 ADD SWAP1 POP DUP2 DUP2 SUB PUSH1 0x0 DUP4 ADD MSTORE PUSH2 0x1119 DUP2 PUSH2 0x10DD JUMP JUMPDEST SWAP1 POP SWAP2 SWAP1 POP JUMP JUMPDEST PUSH1 0x0 PUSH2 0x112B DUP3 PUSH2 0xC11 JUMP JUMPDEST SWAP2 POP PUSH2 0x1136 DUP4 PUSH2 0xC11 JUMP JUMPDEST SWAP3 POP DUP3 DUP3 MUL PUSH2 0x1144 DUP2 PUSH2 0xC11 JUMP JUMPDEST SWAP2 POP DUP3 DUP3 DIV DUP5 EQ DUP4 ISZERO OR PUSH2 0x115B JUMPI PUSH2 0x115A PUSH2 0xFF7 JUMP JUMPDEST JUMPDEST POP SWAP3 SWAP2 POP POP JUMP INVALID LOG2 PUSH5 0x6970667358 0x22 SLT KECCAK256 DUP3 0xDA SDIV 0xE7 0xD1 0xF7 DUP9 0xC3 0xEB DUP16 CODECOPY STATICCALL 0xE1 ISZERO 0xD5 0x1F OR SWAP16 0xB8 0xFB DUP10 GT GT 0xF9 SAR CREATE2 JUMPDEST DUP11 0xD0 CALLER 0x28 0xAC PUSH5 0x736F6C6343 STOP ADDMOD SGT STOP CALLER "},"methodIdentifiers":{"claimRewards()":"372500ab","getBNYRewards(address)":"d05ba57a","getTotalPoints(address)":"1088ce90","getUserHealthData(address)":"e4067f5e","getUserRewards(address)":"078b0fb7","registerUser()":"4d3820eb","registeredUsers(address)":"0e50cee5","updateHealthData(uint256,uint256,uint256)":"3b431af7","userHealthData(address)":"4ad21821","userRewards(address)":"0660f1e8"}}}}}