{"contracts/HealthContractV2.sol":{"HealthContractV2":{"abi":[{"anonymous":false,"inputs":[{"indexed":true,"internalType":"address","name":"user","type":"address"},{"indexed":false,"internalType":"uint256","name":"steps","type":"uint256"},{"indexed":false,"internalType":"uint256","name":"water","type":"uint256"},{"indexed":false,"internalType":"uint256","name":"sleep","type":"uint256"},{"indexed":false,"internalType":"uint256","name":"timestamp","type":"uint256"}],"name":"HealthDataUpdated","type":"event"},{"anonymous":false,"inputs":[{"indexed":true,"internalType":"address","name":"user","type":"address"},{"indexed":false,"internalType":"uint256","name":"points","type":"uint256"},{"indexed":false,"internalType":"uint256","name":"bnyAmount","type":"uint256"},{"indexed":false,"internalType":"uint256","name":"timestamp","type":"uint256"}],"name":"RewardsClaimed","type":"event"},{"anonymous":false,"inputs":[{"indexed":true,"internalType":"address","name":"user","type":"address"},{"indexed":false,"internalType":"uint256","name":"timestamp","type":"uint256"}],"name":"UserRegistered","type":"event"},{"inputs":[],"name":"HACKATHON_ID","outputs":[{"internalType":"uint256","name":"","type":"uint256"}],"stateMutability":"view","type":"function"},{"inputs":[],"name":"VERSION","outputs":[{"internalType":"string","name":"","type":"string"}],"stateMutability":"view","type":"function"},{"inputs":[],"name":"claimRewards","outputs":[],"stateMutability":"nonpayable","type":"function"},{"inputs":[{"internalType":"address","name":"_user","type":"address"}],"name":"getUserHealthData","outputs":[{"components":[{"internalType":"uint256","name":"dailySteps","type":"uint256"},{"internalType":"uint256","name":"waterIntake","type":"uint256"},{"internalType":"uint256","name":"sleepHours","type":"uint256"},{"internalType":"uint256","name":"goalStreak","type":"uint256"},{"internalType":"uint256","name":"lastUpdate","type":"uint256"}],"internalType":"struct HealthContractV2.HealthData","name":"","type":"tuple"}],"stateMutability":"view","type":"function"},{"inputs":[{"internalType":"address","name":"_user","type":"address"}],"name":"getUserRewards","outputs":[{"components":[{"internalType":"uint256","name":"totalPoints","type":"uint256"},{"internalType":"uint256","name":"bnyRewards","type":"uint256"},{"internalType":"uint256","name":"lastClaimed","type":"uint256"}],"internalType":"struct HealthContractV2.Rewards","name":"","type":"tuple"}],"stateMutability":"view","type":"function"},{"inputs":[{"internalType":"address","name":"_user","type":"address"}],"name":"isUserRegistered","outputs":[{"internalType":"bool","name":"","type":"bool"}],"stateMutability":"view","type":"function"},{"inputs":[],"name":"registerUser","outputs":[],"stateMutability":"nonpayable","type":"function"},{"inputs":[{"internalType":"address","name":"","type":"address"}],"name":"registeredUsers","outputs":[{"internalType":"bool","name":"","type":"bool"}],"stateMutability":"view","type":"function"},{"inputs":[{"internalType":"uint256","name":"_steps","type":"uint256"},{"internalType":"uint256","name":"_waterIntake","type":"uint256"},{"internalType":"uint256","name":"_sleepHours","type":"uint256"}],"name":"updateHealthData","outputs":[],"stateMutability":"nonpayable","type":"function"},{"inputs":[{"internalType":"address","name":"","type":"address"}],"name":"userHealthData","outputs":[{"internalType":"uint256","name":"dailySteps","type":"uint256"},{"internalType":"uint256","name":"waterIntake","type":"uint256"},{"internalType":"uint256","name":"sleepHours","type":"uint256"},{"internalType":"uint256","name":"goalStreak","type":"uint256"},{"internalType":"uint256","name":"lastUpdate","type":"uint256"}],"stateMutability":"view","type":"function"},{"inputs":[{"internalType":"address","name":"","type":"address"}],"name":"userRewards","outputs":[{"internalType":"uint256","name":"totalPoints","type":"uint256"},{"internalType":"uint256","name":"bnyRewards","type":"uint256"},{"internalType":"uint256","name":"lastClaimed","type":"uint256"}],"stateMutability":"view","type":"function"}],"evm":{"bytecode":{"linkReferences":{},"object":"608060405234801561001057600080fd5b50611286806100206000396000f3fe608060405234801561001057600080fd5b50600436106100a95760003560e01c80633b431af7116100715780633b431af71461017a5780634ad21821146101965780634d3820eb146101ca57806352af388d146101d4578063e4067f5e146101f2578063ffa1ad7414610222576100a9565b80630660f1e8146100ae578063078b0fb7146100e05780630e50cee514610110578063163f752214610140578063372500ab14610170575b600080fd5b6100c860048036038101906100c39190610c81565b610240565b6040516100d793929190610cc7565b60405180910390f35b6100fa60048036038101906100f59190610c81565b61026a565b6040516101079190610d4f565b60405180910390f35b61012a60048036038101906101259190610c81565b61036d565b6040516101379190610d85565b60405180910390f35b61015a60048036038101906101559190610c81565b61038d565b6040516101679190610d85565b60405180910390f35b6101786103e3565b005b610194600480360381019061018f9190610dcc565b610588565b005b6101b060048036038101906101ab9190610c81565b61073d565b6040516101c1959493929190610e1f565b60405180910390f35b6101d2610773565b005b6101dc6109c4565b6040516101e99190610e72565b60405180910390f35b61020c60048036038101906102079190610c81565b6109cc565b6040516102199190610ef5565b60405180910390f35b61022a610ae2565b6040516102379190610fa0565b60405180910390f35b60016020528060005260406000206000915090508060000154908060010154908060020154905083565b610272610bce565b600260008373ffffffffffffffffffffffffffffffffffffffff1673ffffffffffffffffffffffffffffffffffffffff16815260200190815260200160002060009054906101000a900460ff166102fe576040517f08c379a00000000000000000000000000000000000000000000000000000000081526004016102f59061100e565b60405180910390fd5b600160008373ffffffffffffffffffffffffffffffffffffffff1673ffffffffffffffffffffffffffffffffffffffff16815260200190815260200160002060405180606001604052908160008201548152602001600182015481526020016002820154815250509050919050565b60026020528060005260406000206000915054906101000a900460ff1681565b6000600260008373ffffffffffffffffffffffffffffffffffffffff1673ffffffffffffffffffffffffffffffffffffffff16815260200190815260200160002060009054906101000a900460ff169050919050565b600260003373ffffffffffffffffffffffffffffffffffffffff1673ffffffffffffffffffffffffffffffffffffffff16815260200190815260200160002060009054906101000a900460ff1661046f576040517f08c379a00000000000000000000000000000000000000000000000000000000081526004016104669061100e565b60405180910390fd5b6000600160003373ffffffffffffffffffffffffffffffffffffffff1673ffffffffffffffffffffffffffffffffffffffff16815260200190815260200160002090506000606482600001546104c5919061108c565b90506000811161050a576040517f08c379a000000000000000000000000000000000000000000000000000000000815260040161050190611109565b60405180910390fd5b8082600101600082825461051e9190611129565b925050819055504282600201819055503373ffffffffffffffffffffffffffffffffffffffff167f56253d287efacdb2c4cd76dd03624a4821c1ce721d1152e8f5f5718f6087c9bf8360000154834260405161057c93929190610cc7565b60405180910390a25050565b600260003373ffffffffffffffffffffffffffffffffffffffff1673ffffffffffffffffffffffffffffffffffffffff16815260200190815260200160002060009054906101000a900460ff16610614576040517f08c379a000000000000000000000000000000000000000000000000000000000815260040161060b9061100e565b60405180910390fd5b60008060003373ffffffffffffffffffffffffffffffffffffffff1673ffffffffffffffffffffffffffffffffffffffff16815260200190815260200160002090508381600001819055508281600101819055508181600201819055504281600401819055506000610687858585610b1b565b905080600160003373ffffffffffffffffffffffffffffffffffffffff1673ffffffffffffffffffffffffffffffffffffffff16815260200190815260200160002060000160008282546106db9190611129565b925050819055503373ffffffffffffffffffffffffffffffffffffffff167fbb66db6e3ec995e168abd9ebe8bd4e88f48d7906a0260013b4cd977e791ec8998686864260405161072e949392919061115d565b60405180910390a25050505050565b60006020528060005260406000206000915090508060000154908060010154908060020154908060030154908060040154905085565b600260003373ffffffffffffffffffffffffffffffffffffffff1673ffffffffffffffffffffffffffffffffffffffff16815260200190815260200160002060009054906101000a900460ff1615610800576040517f08c379a00000000000000000000000000000000000000000000000000000000081526004016107f7906111ee565b60405180910390fd5b6001600260003373ffffffffffffffffffffffffffffffffffffffff1673ffffffffffffffffffffffffffffffffffffffff16815260200190815260200160002060006101000a81548160ff0219169083151502179055506040518060a0016040528060008152602001600081526020016000815260200160008152602001428152506000803373ffffffffffffffffffffffffffffffffffffffff1673ffffffffffffffffffffffffffffffffffffffff1681526020019081526020016000206000820151816000015560208201518160010155604082015181600201556060820151816003015560808201518160040155905050604051806060016040528060008152602001600081526020016000815250600160003373ffffffffffffffffffffffffffffffffffffffff1673ffffffffffffffffffffffffffffffffffffffff1681526020019081526020016000206000820151816000015560208201518160010155604082015181600201559050503373ffffffffffffffffffffffffffffffffffffffff167fe29d35093005f4d575e1003753426b57a7f64378ba73332eef9c6ccc2b8decd6426040516109ba9190610e72565b60405180910390a2565b63013500b381565b6109d4610bef565b600260008373ffffffffffffffffffffffffffffffffffffffff1673ffffffffffffffffffffffffffffffffffffffff16815260200190815260200160002060009054906101000a900460ff16610a60576040517f08c379a0000000000000000000000000000000000000000000000000000000008152600401610a579061100e565b60405180910390fd5b6000808373ffffffffffffffffffffffffffffffffffffffff1673ffffffffffffffffffffffffffffffffffffffff1681526020019081526020016000206040518060a0016040529081600082015481526020016001820154815260200160028201548152602001600382015481526020016004820154815250509050919050565b6040518060400160405280600f81526020017f322e302e302d4841434b4154484f4e000000000000000000000000000000000081525081565b6000806000905060648086610b30919061108c565b11610b4757606485610b42919061108c565b610b4a565b60645b81610b559190611129565b90506050600a85610b66919061120e565b11610b7d57600a84610b78919061120e565b610b80565b60505b81610b8b9190611129565b90506078600f84610b9c919061120e565b11610bb357600f83610bae919061120e565b610bb6565b60785b81610bc19190611129565b9050809150509392505050565b60405180606001604052806000815260200160008152602001600081525090565b6040518060a0016040528060008152602001600081526020016000815260200160008152602001600081525090565b600080fd5b600073ffffffffffffffffffffffffffffffffffffffff82169050919050565b6000610c4e82610c23565b9050919050565b610c5e81610c43565b8114610c6957600080fd5b50565b600081359050610c7b81610c55565b92915050565b600060208284031215610c9757610c96610c1e565b5b6000610ca584828501610c6c565b91505092915050565b6000819050919050565b610cc181610cae565b82525050565b6000606082019050610cdc6000830186610cb8565b610ce96020830185610cb8565b610cf66040830184610cb8565b949350505050565b610d0781610cae565b82525050565b606082016000820151610d236000850182610cfe565b506020820151610d366020850182610cfe565b506040820151610d496040850182610cfe565b50505050565b6000606082019050610d646000830184610d0d565b92915050565b60008115159050919050565b610d7f81610d6a565b82525050565b6000602082019050610d9a6000830184610d76565b92915050565b610da981610cae565b8114610db457600080fd5b50565b600081359050610dc681610da0565b92915050565b600080600060608486031215610de557610de4610c1e565b5b6000610df386828701610db7565b9350506020610e0486828701610db7565b9250506040610e1586828701610db7565b9150509250925092565b600060a082019050610e346000830188610cb8565b610e416020830187610cb8565b610e4e6040830186610cb8565b610e5b6060830185610cb8565b610e686080830184610cb8565b9695505050505050565b6000602082019050610e876000830184610cb8565b92915050565b60a082016000820151610ea36000850182610cfe565b506020820151610eb66020850182610cfe565b506040820151610ec96040850182610cfe565b506060820151610edc6060850182610cfe565b506080820151610eef6080850182610cfe565b50505050565b600060a082019050610f0a6000830184610e8d565b92915050565b600081519050919050565b600082825260208201905092915050565b60005b83811015610f4a578082015181840152602081019050610f2f565b60008484015250505050565b6000601f19601f8301169050919050565b6000610f7282610f10565b610f7c8185610f1b565b9350610f8c818560208601610f2c565b610f9581610f56565b840191505092915050565b60006020820190508181036000830152610fba8184610f67565b905092915050565b7f55736572206e6f74207265676973746572656400000000000000000000000000600082015250565b6000610ff8601383610f1b565b915061100382610fc2565b602082019050919050565b6000602082019050818103600083015261102781610feb565b9050919050565b7f4e487b7100000000000000000000000000000000000000000000000000000000600052601260045260246000fd5b7f4e487b7100000000000000000000000000000000000000000000000000000000600052601160045260246000fd5b600061109782610cae565b91506110a283610cae565b9250826110b2576110b161102e565b5b828204905092915050565b7f4e6f207265776172647320746f20636c61696d00000000000000000000000000600082015250565b60006110f3601383610f1b565b91506110fe826110bd565b602082019050919050565b60006020820190508181036000830152611122816110e6565b9050919050565b600061113482610cae565b915061113f83610cae565b92508282019050808211156111575761115661105d565b5b92915050565b60006080820190506111726000830187610cb8565b61117f6020830186610cb8565b61118c6040830185610cb8565b6111996060830184610cb8565b95945050505050565b7f5573657220616c72656164792072656769737465726564000000000000000000600082015250565b60006111d8601783610f1b565b91506111e3826111a2565b602082019050919050565b60006020820190508181036000830152611207816111cb565b9050919050565b600061121982610cae565b915061122483610cae565b925082820261123281610cae565b915082820484148315176112495761124861105d565b5b509291505056fea264697066735822122004e3dd8375717eea9373eb27135746315de32de12f11658c977976fca4381f7064736f6c63430008130033","opcodes":"PUSH1 0x80 PUSH1 0x40 MSTORE CALLVALUE DUP1 ISZERO PUSH2 0x10 JUMPI PUSH1 0x0 DUP1 REVERT JUMPDEST POP PUSH2 0x1286 DUP1 PUSH2 0x20 PUSH1 0x0 CODECOPY PUSH1 0x0 RETURN INVALID PUSH1 0x80 PUSH1 0x40 MSTORE CALLVALUE DUP1 ISZERO PUSH2 0x10 JUMPI PUSH1 0x0 DUP1 REVERT JUMPDEST POP PUSH1 0x4 CALLDATASIZE LT PUSH2 0xA9 JUMPI PUSH1 0x0 CALLDATALOAD PUSH1 0xE0 SHR DUP1 PUSH4 0x3B431AF7 GT PUSH2 0x71 JUMPI DUP1 PUSH4 0x3B431AF7 EQ PUSH2 0x17A JUMPI DUP1 PUSH4 0x4AD21821 EQ PUSH2 0x196 JUMPI DUP1 PUSH4 0x4D3820EB EQ PUSH2 0x1CA JUMPI DUP1 PUSH4 0x52AF388D EQ PUSH2 0x1D4 JUMPI DUP1 PUSH4 0xE4067F5E EQ PUSH2 0x1F2 JUMPI DUP1 PUSH4 0xFFA1AD74 EQ PUSH2 0x222 JUMPI PUSH2 0xA9 JUMP JUMPDEST DUP1 PUSH4 0x660F1E8 EQ PUSH2 0xAE JUMPI DUP1 PUSH4 0x78B0FB7 EQ PUSH2 0xE0 JUMPI DUP1 PUSH4 0xE50CEE5 EQ PUSH2 0x110 JUMPI DUP1 PUSH4 0x163F7522 EQ PUSH2 0x140 JUMPI DUP1 PUSH4 0x372500AB EQ PUSH2 0x170 JUMPI JUMPDEST PUSH1 0x0 DUP1 REVERT JUMPDEST PUSH2 0xC8 PUSH1 0x4 DUP1 CALLDATASIZE SUB DUP2 ADD SWAP1 PUSH2 0xC3 SWAP2 SWAP1 PUSH2 0xC81 JUMP JUMPDEST PUSH2 0x240 JUMP JUMPDEST PUSH1 0x40 MLOAD PUSH2 0xD7 SWAP4 SWAP3 SWAP2 SWAP1 PUSH2 0xCC7 JUMP JUMPDEST PUSH1 0x40 MLOAD DUP1 SWAP2 SUB SWAP1 RETURN JUMPDEST PUSH2 0xFA PUSH1 0x4 DUP1 CALLDATASIZE SUB DUP2 ADD SWAP1 PUSH2 0xF5 SWAP2 SWAP1 PUSH2 0xC81 JUMP JUMPDEST PUSH2 0x26A JUMP JUMPDEST PUSH1 0x40 MLOAD PUSH2 0x107 SWAP2 SWAP1 PUSH2 0xD4F JUMP JUMPDEST PUSH1 0x40 MLOAD DUP1 SWAP2 SUB SWAP1 RETURN JUMPDEST PUSH2 0x12A PUSH1 0x4 DUP1 CALLDATASIZE SUB DUP2 ADD SWAP1 PUSH2 0x125 SWAP2 SWAP1 PUSH2 0xC81 JUMP JUMPDEST PUSH2 0x36D JUMP JUMPDEST PUSH1 0x40 MLOAD PUSH2 0x137 SWAP2 SWAP1 PUSH2 0xD85 JUMP JUMPDEST PUSH1 0x40 MLOAD DUP1 SWAP2 SUB SWAP1 RETURN JUMPDEST PUSH2 0x15A PUSH1 0x4 DUP1 CALLDATASIZE SUB DUP2 ADD SWAP1 PUSH2 0x155 SWAP2 SWAP1 PUSH2 0xC81 JUMP JUMPDEST PUSH2 0x38D JUMP JUMPDEST PUSH1 0x40 MLOAD PUSH2 0x167 SWAP2 SWAP1 PUSH2 0xD85 JUMP JUMPDEST PUSH1 0x40 MLOAD DUP1 SWAP2 SUB SWAP1 RETURN JUMPDEST PUSH2 0x178 PUSH2 0x3E3 JUMP JUMPDEST STOP JUMPDEST PUSH2 0x194 PUSH1 0x4 DUP1 CALLDATASIZE SUB DUP2 ADD SWAP1 PUSH2 0x18F SWAP2 SWAP1 PUSH2 0xDCC JUMP JUMPDEST PUSH2 0x588 JUMP JUMPDEST STOP JUMPDEST PUSH2 0x1B0 PUSH1 0x4 DUP1 CALLDATASIZE SUB DUP2 ADD SWAP1 PUSH2 0x1AB SWAP2 SWAP1 PUSH2 0xC81 JUMP JUMPDEST PUSH2 0x73D JUMP JUMPDEST PUSH1 0x40 MLOAD PUSH2 0x1C1 SWAP6 SWAP5 SWAP4 SWAP3 SWAP2 SWAP1 PUSH2 0xE1F JUMP JUMPDEST PUSH1 0x40 MLOAD DUP1 SWAP2 SUB SWAP1 RETURN JUMPDEST PUSH2 0x1D2 PUSH2 0x773 JUMP JUMPDEST STOP JUMPDEST PUSH2 0x1DC PUSH2 0x9C4 JUMP JUMPDEST PUSH1 0x40 MLOAD PUSH2 0x1E9 SWAP2 SWAP1 PUSH2 0xE72 JUMP JUMPDEST PUSH1 0x40 MLOAD DUP1 SWAP2 SUB SWAP1 RETURN JUMPDEST PUSH2 0x20C PUSH1 0x4 DUP1 CALLDATASIZE SUB DUP2 ADD SWAP1 PUSH2 0x207 SWAP2 SWAP1 PUSH2 0xC81 JUMP JUMPDEST PUSH2 0x9CC JUMP JUMPDEST PUSH1 0x40 MLOAD PUSH2 0x219 SWAP2 SWAP1 PUSH2 0xEF5 JUMP JUMPDEST PUSH1 0x40 MLOAD DUP1 SWAP2 SUB SWAP1 RETURN JUMPDEST PUSH2 0x22A PUSH2 0xAE2 JUMP JUMPDEST PUSH1 0x40 MLOAD PUSH2 0x237 SWAP2 SWAP1 PUSH2 0xFA0 JUMP JUMPDEST PUSH1 0x40 MLOAD DUP1 SWAP2 SUB SWAP1 RETURN JUMPDEST PUSH1 0x1 PUSH1 0x20 MSTORE DUP1 PUSH1 0x0 MSTORE PUSH1 0x40 PUSH1 0x0 KECCAK256 PUSH1 0x0 SWAP2 POP SWAP1 POP DUP1 PUSH1 0x0 ADD SLOAD SWAP1 DUP1 PUSH1 0x1 ADD SLOAD SWAP1 DUP1 PUSH1 0x2 ADD SLOAD SWAP1 POP DUP4 JUMP JUMPDEST PUSH2 0x272 PUSH2 0xBCE JUMP JUMPDEST PUSH1 0x2 PUSH1 0x0 DUP4 PUSH20 0xFFFFFFFFFFFFFFFFFFFFFFFFFFFFFFFFFFFFFFFF AND PUSH20 0xFFFFFFFFFFFFFFFFFFFFFFFFFFFFFFFFFFFFFFFF AND DUP2 MSTORE PUSH1 0x20 ADD SWAP1 DUP2 MSTORE PUSH1 0x20 ADD PUSH1 0x0 KECCAK256 PUSH1 0x0 SWAP1 SLOAD SWAP1 PUSH2 0x100 EXP SWAP1 DIV PUSH1 0xFF AND PUSH2 0x2FE JUMPI PUSH1 0x40 MLOAD PUSH32 0x8C379A000000000000000000000000000000000000000000000000000000000 DUP2 MSTORE PUSH1 0x4 ADD PUSH2 0x2F5 SWAP1 PUSH2 0x100E JUMP JUMPDEST PUSH1 0x40 MLOAD DUP1 SWAP2 SUB SWAP1 REVERT JUMPDEST PUSH1 0x1 PUSH1 0x0 DUP4 PUSH20 0xFFFFFFFFFFFFFFFFFFFFFFFFFFFFFFFFFFFFFFFF AND PUSH20 0xFFFFFFFFFFFFFFFFFFFFFFFFFFFFFFFFFFFFFFFF AND DUP2 MSTORE PUSH1 0x20 ADD SWAP1 DUP2 MSTORE PUSH1 0x20 ADD PUSH1 0x0 KECCAK256 PUSH1 0x40 MLOAD DUP1 PUSH1 0x60 ADD PUSH1 0x40 MSTORE SWAP1 DUP2 PUSH1 0x0 DUP3 ADD SLOAD DUP2 MSTORE PUSH1 0x20 ADD PUSH1 0x1 DUP3 ADD SLOAD DUP2 MSTORE PUSH1 0x20 ADD PUSH1 0x2 DUP3 ADD SLOAD DUP2 MSTORE POP POP SWAP1 POP SWAP2 SWAP1 POP JUMP JUMPDEST PUSH1 0x2 PUSH1 0x20 MSTORE DUP1 PUSH1 0x0 MSTORE PUSH1 0x40 PUSH1 0x0 KECCAK256 PUSH1 0x0 SWAP2 POP SLOAD SWAP1 PUSH2 0x100 EXP SWAP1 DIV PUSH1 0xFF AND DUP2 JUMP JUMPDEST PUSH1 0x0 PUSH1 0x2 PUSH1 0x0 DUP4 PUSH20 0xFFFFFFFFFFFFFFFFFFFFFFFFFFFFFFFFFFFFFFFF AND PUSH20 0xFFFFFFFFFFFFFFFFFFFFFFFFFFFFFFFFFFFFFFFF AND DUP2 MSTORE PUSH1 0x20 ADD SWAP1 DUP2 MSTORE PUSH1 0x20 ADD PUSH1 0x0 KECCAK256 PUSH1 0x0 SWAP1 SLOAD SWAP1 PUSH2 0x100 EXP SWAP1 DIV PUSH1 0xFF AND SWAP1 POP SWAP2 SWAP1 POP JUMP JUMPDEST PUSH1 0x2 PUSH1 0x0 CALLER PUSH20 0xFFFFFFFFFFFFFFFFFFFFFFFFFFFFFFFFFFFFFFFF AND PUSH20 0xFFFFFFFFFFFFFFFFFFFFFFFFFFFFFFFFFFFFFFFF AND DUP2 MSTORE PUSH1 0x20 ADD SWAP1 DUP2 MSTORE PUSH1 0x20 ADD PUSH1 0x0 KECCAK256 PUSH1 0x0 SWAP1 SLOAD SWAP1 PUSH2 0x100 EXP SWAP1 DIV PUSH1 0xFF AND PUSH2 0x46F JUMPI PUSH1 0x40 MLOAD PUSH32 0x8C379A000000000000000000000000000000000000000000000000000000000 DUP2 MSTORE PUSH1 0x4 ADD PUSH2 0x466 SWAP1 PUSH2 0x100E JUMP JUMPDEST PUSH1 0x40 MLOAD DUP1 SWAP2 SUB SWAP1 REVERT JUMPDEST PUSH1 0x0 PUSH1 0x1 PUSH1 0x0 CALLER PUSH20 0xFFFFFFFFFFFFFFFFFFFFFFFFFFFFFFFFFFFFFFFF AND PUSH20 0xFFFFFFFFFFFFFFFFFFFFFFFFFFFFFFFFFFFFFFFF AND DUP2 MSTORE PUSH1 0x20 ADD SWAP1 DUP2 MSTORE PUSH1 0x20 ADD PUSH1 0x0 KECCAK256 SWAP1 POP PUSH1 0x0 PUSH1 0x64 DUP3 PUSH1 0x0 ADD SLOAD PUSH2 0x4C5 SWAP2 SWAP1 PUSH2 0x108C JUMP JUMPDEST SWAP1 POP PUSH1 0x0 DUP2 GT PUSH2 0x50A JUMPI PUSH1 0x40 MLOAD PUSH32 0x8C379A000000000000000000000000000000000000000000000000000000000 DUP2 MSTORE PUSH1 0x4 ADD PUSH2 0x501 SWAP1 PUSH2 0x1109 JUMP JUMPDEST PUSH1 0x40 MLOAD DUP1 SWAP2 SUB SWAP1 REVERT JUMPDEST DUP1 DUP3 PUSH1 0x1 ADD PUSH1 0x0 DUP3 DUP3 SLOAD PUSH2 0x51E SWAP2 SWAP1 PUSH2 0x1129 JUMP JUMPDEST SWAP3 POP POP DUP2 SWAP1 SSTORE POP TIMESTAMP DUP3 PUSH1 0x2 ADD DUP2 SWAP1 SSTORE POP CALLER PUSH20 0xFFFFFFFFFFFFFFFFFFFFFFFFFFFFFFFFFFFFFFFF AND PUSH32 0x56253D287EFACDB2C4CD76DD03624A4821C1CE721D1152E8F5F5718F6087C9BF DUP4 PUSH1 0x0 ADD SLOAD DUP4 TIMESTAMP PUSH1 0x40 MLOAD PUSH2 0x57C SWAP4 SWAP3 SWAP2 SWAP1 PUSH2 0xCC7 JUMP JUMPDEST PUSH1 0x40 MLOAD DUP1 SWAP2 SUB SWAP1 LOG2 POP POP JUMP JUMPDEST PUSH1 0x2 PUSH1 0x0 CALLER PUSH20 0xFFFFFFFFFFFFFFFFFFFFFFFFFFFFFFFFFFFFFFFF AND PUSH20 0xFFFFFFFFFFFFFFFFFFFFFFFFFFFFFFFFFFFFFFFF AND DUP2 MSTORE PUSH1 0x20 ADD SWAP1 DUP2 MSTORE PUSH1 0x20 ADD PUSH1 0x0 KECCAK256 PUSH1 0x0 SWAP1 SLOAD SWAP1 PUSH2 0x100 EXP SWAP1 DIV PUSH1 0xFF AND PUSH2 0x614 JUMPI PUSH1 0x40 MLOAD PUSH32 0x8C379A000000000000000000000000000000000000000000000000000000000 DUP2 MSTORE PUSH1 0x4 ADD PUSH2 0x60B SWAP1 PUSH2 0x100E JUMP JUMPDEST PUSH1 0x40 MLOAD DUP1 SWAP2 SUB SWAP1 REVERT JUMPDEST PUSH1 0x0 DUP1 PUSH1 0x0 CALLER PUSH20 0xFFFFFFFFFFFFFFFFFFFFFFFFFFFFFFFFFFFFFFFF AND PUSH20 0xFFFFFFFFFFFFFFFFFFFFFFFFFFFFFFFFFFFFFFFF AND DUP2 MSTORE PUSH1 0x20 ADD SWAP1 DUP2 MSTORE PUSH1 0x20 ADD PUSH1 0x0 KECCAK256 SWAP1 POP DUP4 DUP2 PUSH1 0x0 ADD DUP2 SWAP1 SSTORE POP DUP3 DUP2 PUSH1 0x1 ADD DUP2 SWAP1 SSTORE POP DUP2 DUP2 PUSH1 0x2 ADD DUP2 SWAP1 SSTORE POP TIMESTAMP DUP2 PUSH1 0x4 ADD DUP2 SWAP1 SSTORE POP PUSH1 0x0 PUSH2 0x687 DUP6 DUP6 DUP6 PUSH2 0xB1B JUMP JUMPDEST SWAP1 POP DUP1 PUSH1 0x1 PUSH1 0x0 CALLER PUSH20 0xFFFFFFFFFFFFFFFFFFFFFFFFFFFFFFFFFFFFFFFF AND PUSH20 0xFFFFFFFFFFFFFFFFFFFFFFFFFFFFFFFFFFFFFFFF AND DUP2 MSTORE PUSH1 0x20 ADD SWAP1 DUP2 MSTORE PUSH1 0x20 ADD PUSH1 0x0 KECCAK256 PUSH1 0x0 ADD PUSH1 0x0 DUP3 DUP3 SLOAD PUSH2 0x6DB SWAP2 SWAP1 PUSH2 0x1129 JUMP JUMPDEST SWAP3 POP POP DUP2 SWAP1 SSTORE POP CALLER PUSH20 0xFFFFFFFFFFFFFFFFFFFFFFFFFFFFFFFFFFFFFFFF AND PUSH32 0xBB66DB6E3EC995E168ABD9EBE8BD4E88F48D7906A0260013B4CD977E791EC899 DUP7 DUP7 DUP7 TIMESTAMP PUSH1 0x40 MLOAD PUSH2 0x72E SWAP5 SWAP4 SWAP3 SWAP2 SWAP1 PUSH2 0x115D JUMP JUMPDEST PUSH1 0x40 MLOAD DUP1 SWAP2 SUB SWAP1 LOG2 POP POP POP POP POP JUMP JUMPDEST PUSH1 0x0 PUSH1 0x20 MSTORE DUP1 PUSH1 0x0 MSTORE PUSH1 0x40 PUSH1 0x0 KECCAK256 PUSH1 0x0 SWAP2 POP SWAP1 POP DUP1 PUSH1 0x0 ADD SLOAD SWAP1 DUP1 PUSH1 0x1 ADD SLOAD SWAP1 DUP1 PUSH1 0x2 ADD SLOAD SWAP1 DUP1 PUSH1 0x3 ADD SLOAD SWAP1 DUP1 PUSH1 0x4 ADD SLOAD SWAP1 POP DUP6 JUMP JUMPDEST PUSH1 0x2 PUSH1 0x0 CALLER PUSH20 0xFFFFFFFFFFFFFFFFFFFFFFFFFFFFFFFFFFFFFFFF AND PUSH20 0xFFFFFFFFFFFFFFFFFFFFFFFFFFFFFFFFFFFFFFFF AND DUP2 MSTORE PUSH1 0x20 ADD SWAP1 DUP2 MSTORE PUSH1 0x20 ADD PUSH1 0x0 KECCAK256 PUSH1 0x0 SWAP1 SLOAD SWAP1 PUSH2 0x100 EXP SWAP1 DIV PUSH1 0xFF AND ISZERO PUSH2 0x800 JUMPI PUSH1 0x40 MLOAD PUSH32 0x8C379A000000000000000000000000000000000000000000000000000000000 DUP2 MSTORE PUSH1 0x4 ADD PUSH2 0x7F7 SWAP1 PUSH2 0x11EE JUMP JUMPDEST PUSH1 0x40 MLOAD DUP1 SWAP2 SUB SWAP1 REVERT JUMPDEST PUSH1 0x1 PUSH1 0x2 PUSH1 0x0 CALLER PUSH20 0xFFFFFFFFFFFFFFFFFFFFFFFFFFFFFFFFFFFFFFFF AND PUSH20 0xFFFFFFFFFFFFFFFFFFFFFFFFFFFFFFFFFFFFFFFF AND DUP2 MSTORE PUSH1 0x20 ADD SWAP1 DUP2 MSTORE PUSH1 0x20 ADD PUSH1 0x0 KECCAK256 PUSH1 0x0 PUSH2 0x100 EXP DUP2 SLOAD DUP2 PUSH1 0xFF MUL NOT AND SWAP1 DUP4 ISZERO ISZERO MUL OR SWAP1 SSTORE POP PUSH1 0x40 MLOAD DUP1 PUSH1 0xA0 ADD PUSH1 0x40 MSTORE DUP1 PUSH1 0x0 DUP2 MSTORE PUSH1 0x20 ADD PUSH1 0x0 DUP2 MSTORE PUSH1 0x20 ADD PUSH1 0x0 DUP2 MSTORE PUSH1 0x20 ADD PUSH1 0x0 DUP2 MSTORE PUSH1 0x20 ADD TIMESTAMP DUP2 MSTORE POP PUSH1 0x0 DUP1 CALLER PUSH20 0xFFFFFFFFFFFFFFFFFFFFFFFFFFFFFFFFFFFFFFFF AND PUSH20 0xFFFFFFFFFFFFFFFFFFFFFFFFFFFFFFFFFFFFFFFF AND DUP2 MSTORE PUSH1 0x20 ADD SWAP1 DUP2 MSTORE PUSH1 0x20 ADD PUSH1 0x0 KECCAK256 PUSH1 0x0 DUP3 ADD MLOAD DUP2 PUSH1 0x0 ADD SSTORE PUSH1 0x20 DUP3 ADD MLOAD DUP2 PUSH1 0x1 ADD SSTORE PUSH1 0x40 DUP3 ADD MLOAD DUP2 PUSH1 0x2 ADD SSTORE PUSH1 0x60 DUP3 ADD MLOAD DUP2 PUSH1 0x3 ADD SSTORE PUSH1 0x80 DUP3 ADD MLOAD DUP2 PUSH1 0x4 ADD SSTORE SWAP1 POP POP PUSH1 0x40 MLOAD DUP1 PUSH1 0x60 ADD PUSH1 0x40 MSTORE DUP1 PUSH1 0x0 DUP2 MSTORE PUSH1 0x20 ADD PUSH1 0x0 DUP2 MSTORE PUSH1 0x20 ADD PUSH1 0x0 DUP2 MSTORE POP PUSH1 0x1 PUSH1 0x0 CALLER PUSH20 0xFFFFFFFFFFFFFFFFFFFFFFFFFFFFFFFFFFFFFFFF AND PUSH20 0xFFFFFFFFFFFFFFFFFFFFFFFFFFFFFFFFFFFFFFFF AND DUP2 MSTORE PUSH1 0x20 ADD SWAP1 DUP2 MSTORE PUSH1 0x20 ADD PUSH1 0x0 KECCAK256 PUSH1 0x0 DUP3 ADD MLOAD DUP2 PUSH1 0x0 ADD SSTORE PUSH1 0x20 DUP3 ADD MLOAD DUP2 PUSH1 0x1 ADD SSTORE PUSH1 0x40 DUP3 ADD MLOAD DUP2 PUSH1 0x2 ADD SSTORE SWAP1 POP POP CALLER PUSH20 0xFFFFFFFFFFFFFFFFFFFFFFFFFFFFFFFFFFFFFFFF AND PUSH32 0xE29D35093005F4D575E1003753426B57A7F64378BA73332EEF9C6CCC2B8DECD6 TIMESTAMP PUSH1 0x40 MLOAD PUSH2 0x9BA SWAP2 SWAP1 PUSH2 0xE72 JUMP JUMPDEST PUSH1 0x40 MLOAD DUP1 SWAP2 SUB SWAP1 LOG2 JUMP JUMPDEST PUSH4 0x13500B3 DUP2 JUMP JUMPDEST PUSH2 0x9D4 PUSH2 0xBEF JUMP JUMPDEST PUSH1 0x2 PUSH1 0x0 DUP4 PUSH20 0xFFFFFFFFFFFFFFFFFFFFFFFFFFFFFFFFFFFFFFFF AND PUSH20 0xFFFFFFFFFFFFFFFFFFFFFFFFFFFFFFFFFFFFFFFF AND DUP2 MSTORE PUSH1 0x20 ADD SWAP1 DUP2 MSTORE PUSH1 0x20 ADD PUSH1 0x0 KECCAK256 PUSH1 0x0 SWAP1 SLOAD SWAP1 PUSH2 0x100 EXP SWAP1 DIV PUSH1 0xFF AND PUSH2 0xA60 JUMPI PUSH1 0x40 MLOAD PUSH32 0x8C379A000000000000000000000000000000000000000000000000000000000 DUP2 MSTORE PUSH1 0x4 ADD PUSH2 0xA57 SWAP1 PUSH2 0x100E JUMP JUMPDEST PUSH1 0x40 MLOAD DUP1 SWAP2 SUB SWAP1 REVERT JUMPDEST PUSH1 0x0 DUP1 DUP4 PUSH20 0xFFFFFFFFFFFFFFFFFFFFFFFFFFFFFFFFFFFFFFFF AND PUSH20 0xFFFFFFFFFFFFFFFFFFFFFFFFFFFFFFFFFFFFFFFF AND DUP2 MSTORE PUSH1 0x20 ADD SWAP1 DUP2 MSTORE PUSH1 0x20 ADD PUSH1 0x0 KECCAK256 PUSH1 0x40 MLOAD DUP1 PUSH1 0xA0 ADD PUSH1 0x40 MSTORE SWAP1 DUP2 PUSH1 0x0 DUP3 ADD SLOAD DUP2 MSTORE PUSH1 0x20 ADD PUSH1 0x1 DUP3 ADD SLOAD DUP2 MSTORE PUSH1 0x20 ADD PUSH1 0x2 DUP3 ADD SLOAD DUP2 MSTORE PUSH1 0x20 ADD PUSH1 0x3 DUP3 ADD SLOAD DUP2 MSTORE PUSH1 0x20 ADD PUSH1 0x4 DUP3 ADD SLOAD DUP2 MSTORE POP POP SWAP1 POP SWAP2 SWAP1 POP JUMP JUMPDEST PUSH1 0x40 MLOAD DUP1 PUSH1 0x40 ADD PUSH1 0x40 MSTORE DUP1 PUSH1 0xF DUP2 MSTORE PUSH1 0x20 ADD PUSH32 0x322E302E302D4841434B4154484F4E0000000000000000000000000000000000 DUP2 MSTORE POP DUP2 JUMP JUMPDEST PUSH1 0x0 DUP1 PUSH1 0x0 SWAP1 POP PUSH1 0x64 DUP1 DUP7 PUSH2 0xB30 SWAP2 SWAP1 PUSH2 0x108C JUMP JUMPDEST GT PUSH2 0xB47 JUMPI PUSH1 0x64 DUP6 PUSH2 0xB42 SWAP2 SWAP1 PUSH2 0x108C JUMP JUMPDEST PUSH2 0xB4A JUMP JUMPDEST PUSH1 0x64 JUMPDEST DUP2 PUSH2 0xB55 SWAP2 SWAP1 PUSH2 0x1129 JUMP JUMPDEST SWAP1 POP PUSH1 0x50 PUSH1 0xA DUP6 PUSH2 0xB66 SWAP2 SWAP1 PUSH2 0x120E JUMP JUMPDEST GT PUSH2 0xB7D JUMPI PUSH1 0xA DUP5 PUSH2 0xB78 SWAP2 SWAP1 PUSH2 0x120E JUMP JUMPDEST PUSH2 0xB80 JUMP JUMPDEST PUSH1 0x50 JUMPDEST DUP2 PUSH2 0xB8B SWAP2 SWAP1 PUSH2 0x1129 JUMP JUMPDEST SWAP1 POP PUSH1 0x78 PUSH1 0xF DUP5 PUSH2 0xB9C SWAP2 SWAP1 PUSH2 0x120E JUMP JUMPDEST GT PUSH2 0xBB3 JUMPI PUSH1 0xF DUP4 PUSH2 0xBAE SWAP2 SWAP1 PUSH2 0x120E JUMP JUMPDEST PUSH2 0xBB6 JUMP JUMPDEST PUSH1 0x78 JUMPDEST DUP2 PUSH2 0xBC1 SWAP2 SWAP1 PUSH2 0x1129 JUMP JUMPDEST SWAP1 POP DUP1 SWAP2 POP POP SWAP4 SWAP3 POP POP POP JUMP JUMPDEST PUSH1 0x40 MLOAD DUP1 PUSH1 0x60 ADD PUSH1 0x40 MSTORE DUP1 PUSH1 0x0 DUP2 MSTORE PUSH1 0x20 ADD PUSH1 0x0 DUP2 MSTORE PUSH1 0x20 ADD PUSH1 0x0 DUP2 MSTORE POP SWAP1 JUMP JUMPDEST PUSH1 0x40 MLOAD DUP1 PUSH1 0xA0 ADD PUSH1 0x40 MSTORE DUP1 PUSH1 0x0 DUP2 MSTORE PUSH1 0x20 ADD PUSH1 0x0 DUP2 MSTORE PUSH1 0x20 ADD PUSH1 0x0 DUP2 MSTORE PUSH1 0x20 ADD PUSH1 0x0 DUP2 MSTORE PUSH1 0x20 ADD PUSH1 0x0 DUP2 MSTORE POP SWAP1 JUMP JUMPDEST PUSH1 0x0 DUP1 REVERT JUMPDEST PUSH1 0x0 PUSH20 0xFFFFFFFFFFFFFFFFFFFFFFFFFFFFFFFFFFFFFFFF DUP3 AND SWAP1 POP SWAP2 SWAP1 POP JUMP JUMPDEST PUSH1 0x0 PUSH2 0xC4E DUP3 PUSH2 0xC23 JUMP JUMPDEST SWAP1 POP SWAP2 SWAP1 POP JUMP JUMPDEST PUSH2 0xC5E DUP2 PUSH2 0xC43 JUMP JUMPDEST DUP2 EQ PUSH2 0xC69 JUMPI PUSH1 0x0 DUP1 REVERT JUMPDEST POP JUMP JUMPDEST PUSH1 0x0 DUP2 CALLDATALOAD SWAP1 POP PUSH2 0xC7B DUP2 PUSH2 0xC55 JUMP JUMPDEST SWAP3 SWAP2 POP POP JUMP JUMPDEST PUSH1 0x0 PUSH1 0x20 DUP3 DUP5 SUB SLT ISZERO PUSH2 0xC97 JUMPI PUSH2 0xC96 PUSH2 0xC1E JUMP JUMPDEST JUMPDEST PUSH1 0x0 PUSH2 0xCA5 DUP5 DUP3 DUP6 ADD PUSH2 0xC6C JUMP JUMPDEST SWAP2 POP POP SWAP3 SWAP2 POP POP JUMP JUMPDEST PUSH1 0x0 DUP2 SWAP1 POP SWAP2 SWAP1 POP JUMP JUMPDEST PUSH2 0xCC1 DUP2 PUSH2 0xCAE JUMP JUMPDEST DUP3 MSTORE POP POP JUMP JUMPDEST PUSH1 0x0 PUSH1 0x60 DUP3 ADD SWAP1 POP PUSH2 0xCDC PUSH1 0x0 DUP4 ADD DUP7 PUSH2 0xCB8 JUMP JUMPDEST PUSH2 0xCE9 PUSH1 0x20 DUP4 ADD DUP6 PUSH2 0xCB8 JUMP JUMPDEST PUSH2 0xCF6 PUSH1 0x40 DUP4 ADD DUP5 PUSH2 0xCB8 JUMP JUMPDEST SWAP5 SWAP4 POP POP POP POP JUMP JUMPDEST PUSH2 0xD07 DUP2 PUSH2 0xCAE JUMP JUMPDEST DUP3 MSTORE POP POP JUMP JUMPDEST PUSH1 0x60 DUP3 ADD PUSH1 0x0 DUP3 ADD MLOAD PUSH2 0xD23 PUSH1 0x0 DUP6 ADD DUP3 PUSH2 0xCFE JUMP JUMPDEST POP PUSH1 0x20 DUP3 ADD MLOAD PUSH2 0xD36 PUSH1 0x20 DUP6 ADD DUP3 PUSH2 0xCFE JUMP JUMPDEST POP PUSH1 0x40 DUP3 ADD MLOAD PUSH2 0xD49 PUSH1 0x40 DUP6 ADD DUP3 PUSH2 0xCFE JUMP JUMPDEST POP POP POP POP JUMP JUMPDEST PUSH1 0x0 PUSH1 0x60 DUP3 ADD SWAP1 POP PUSH2 0xD64 PUSH1 0x0 DUP4 ADD DUP5 PUSH2 0xD0D JUMP JUMPDEST SWAP3 SWAP2 POP POP JUMP JUMPDEST PUSH1 0x0 DUP2 ISZERO ISZERO SWAP1 POP SWAP2 SWAP1 POP JUMP JUMPDEST PUSH2 0xD7F DUP2 PUSH2 0xD6A JUMP JUMPDEST DUP3 MSTORE POP POP JUMP JUMPDEST PUSH1 0x0 PUSH1 0x20 DUP3 ADD SWAP1 POP PUSH2 0xD9A PUSH1 0x0 DUP4 ADD DUP5 PUSH2 0xD76 JUMP JUMPDEST SWAP3 SWAP2 POP POP JUMP JUMPDEST PUSH2 0xDA9 DUP2 PUSH2 0xCAE JUMP JUMPDEST DUP2 EQ PUSH2 0xDB4 JUMPI PUSH1 0x0 DUP1 REVERT JUMPDEST POP JUMP JUMPDEST PUSH1 0x0 DUP2 CALLDATALOAD SWAP1 POP PUSH2 0xDC6 DUP2 PUSH2 0xDA0 JUMP JUMPDEST SWAP3 SWAP2 POP POP JUMP JUMPDEST PUSH1 0x0 DUP1 PUSH1 0x0 PUSH1 0x60 DUP5 DUP7 SUB SLT ISZERO PUSH2 0xDE5 JUMPI PUSH2 0xDE4 PUSH2 0xC1E JUMP JUMPDEST JUMPDEST PUSH1 0x0 PUSH2 0xDF3 DUP7 DUP3 DUP8 ADD PUSH2 0xDB7 JUMP JUMPDEST SWAP4 POP POP PUSH1 0x20 PUSH2 0xE04 DUP7 DUP3 DUP8 ADD PUSH2 0xDB7 JUMP JUMPDEST SWAP3 POP POP PUSH1 0x40 PUSH2 0xE15 DUP7 DUP3 DUP8 ADD PUSH2 0xDB7 JUMP JUMPDEST SWAP2 POP POP SWAP3 POP SWAP3 POP SWAP3 JUMP JUMPDEST PUSH1 0x0 PUSH1 0xA0 DUP3 ADD SWAP1 POP PUSH2 0xE34 PUSH1 0x0 DUP4 ADD DUP9 PUSH2 0xCB8 JUMP JUMPDEST PUSH2 0xE41 PUSH1 0x20 DUP4 ADD DUP8 PUSH2 0xCB8 JUMP JUMPDEST PUSH2 0xE4E PUSH1 0x40 DUP4 ADD DUP7 PUSH2 0xCB8 JUMP JUMPDEST PUSH2 0xE5B PUSH1 0x60 DUP4 ADD DUP6 PUSH2 0xCB8 JUMP JUMPDEST PUSH2 0xE68 PUSH1 0x80 DUP4 ADD DUP5 PUSH2 0xCB8 JUMP JUMPDEST SWAP7 SWAP6 POP POP POP POP POP POP JUMP JUMPDEST PUSH1 0x0 PUSH1 0x20 DUP3 ADD SWAP1 POP PUSH2 0xE87 PUSH1 0x0 DUP4 ADD DUP5 PUSH2 0xCB8 JUMP JUMPDEST SWAP3 SWAP2 POP POP JUMP JUMPDEST PUSH1 0xA0 DUP3 ADD PUSH1 0x0 DUP3 ADD MLOAD PUSH2 0xEA3 PUSH1 0x0 DUP6 ADD DUP3 PUSH2 0xCFE JUMP JUMPDEST POP PUSH1 0x20 DUP3 ADD MLOAD PUSH2 0xEB6 PUSH1 0x20 DUP6 ADD DUP3 PUSH2 0xCFE JUMP JUMPDEST POP PUSH1 0x40 DUP3 ADD MLOAD PUSH2 0xEC9 PUSH1 0x40 DUP6 ADD DUP3 PUSH2 0xCFE JUMP JUMPDEST POP PUSH1 0x60 DUP3 ADD MLOAD PUSH2 0xEDC PUSH1 0x60 DUP6 ADD DUP3 PUSH2 0xCFE JUMP JUMPDEST POP PUSH1 0x80 DUP3 ADD MLOAD PUSH2 0xEEF PUSH1 0x80 DUP6 ADD DUP3 PUSH2 0xCFE JUMP JUMPDEST POP POP POP POP JUMP JUMPDEST PUSH1 0x0 PUSH1 0xA0 DUP3 ADD SWAP1 POP PUSH2 0xF0A PUSH1 0x0 DUP4 ADD DUP5 PUSH2 0xE8D JUMP JUMPDEST SWAP3 SWAP2 POP POP JUMP JUMPDEST PUSH1 0x0 DUP2 MLOAD SWAP1 POP SWAP2 SWAP1 POP JUMP JUMPDEST PUSH1 0x0 DUP3 DUP3 MSTORE PUSH1 0x20 DUP3 ADD SWAP1 POP SWAP3 SWAP2 POP POP JUMP JUMPDEST PUSH1 0x0 JUMPDEST DUP4 DUP2 LT ISZERO PUSH2 0xF4A JUMPI DUP1 DUP3 ADD MLOAD DUP2 DUP5 ADD MSTORE PUSH1 0x20 DUP2 ADD SWAP1 POP PUSH2 0xF2F JUMP JUMPDEST PUSH1 0x0 DUP5 DUP5 ADD MSTORE POP POP POP POP JUMP JUMPDEST PUSH1 0x0 PUSH1 0x1F NOT PUSH1 0x1F DUP4 ADD AND SWAP1 POP SWAP2 SWAP1 POP JUMP JUMPDEST PUSH1 0x0 PUSH2 0xF72 DUP3 PUSH2 0xF10 JUMP JUMPDEST PUSH2 0xF7C DUP2 DUP6 PUSH2 0xF1B JUMP JUMPDEST SWAP4 POP PUSH2 0xF8C DUP2 DUP6 PUSH1 0x20 DUP7 ADD PUSH2 0xF2C JUMP JUMPDEST PUSH2 0xF95 DUP2 PUSH2 0xF56 JUMP JUMPDEST DUP5 ADD SWAP2 POP POP SWAP3 SWAP2 POP POP JUMP JUMPDEST PUSH1 0x0 PUSH1 0x20 DUP3 ADD SWAP1 POP DUP2 DUP2 SUB PUSH1 0x0 DUP4 ADD MSTORE PUSH2 0xFBA DUP2 DUP5 PUSH2 0xF67 JUMP JUMPDEST SWAP1 POP SWAP3 SWAP2 POP POP JUMP JUMPDEST PUSH32 0x55736572206E6F74207265676973746572656400000000000000000000000000 PUSH1 0x0 DUP3 ADD MSTORE POP JUMP JUMPDEST PUSH1 0x0 PUSH2 0xFF8 PUSH1 0x13 DUP4 PUSH2 0xF1B JUMP JUMPDEST SWAP2 POP PUSH2 0x1003 DUP3 PUSH2 0xFC2 JUMP JUMPDEST PUSH1 0x20 DUP3 ADD SWAP1 POP SWAP2 SWAP1 POP JUMP JUMPDEST PUSH1 0x0 PUSH1 0x20 DUP3 ADD SWAP1 POP DUP2 DUP2 SUB PUSH1 0x0 DUP4 ADD MSTORE PUSH2 0x1027 DUP2 PUSH2 0xFEB JUMP JUMPDEST SWAP1 POP SWAP2 SWAP1 POP JUMP JUMPDEST PUSH32 0x4E487B7100000000000000000000000000000000000000000000000000000000 PUSH1 0x0 MSTORE PUSH1 0x12 PUSH1 0x4 MSTORE PUSH1 0x24 PUSH1 0x0 REVERT JUMPDEST PUSH32 0x4E487B7100000000000000000000000000000000000000000000000000000000 PUSH1 0x0 MSTORE PUSH1 0x11 PUSH1 0x4 MSTORE PUSH1 0x24 PUSH1 0x0 REVERT JUMPDEST PUSH1 0x0 PUSH2 0x1097 DUP3 PUSH2 0xCAE JUMP JUMPDEST SWAP2 POP PUSH2 0x10A2 DUP4 PUSH2 0xCAE JUMP JUMPDEST SWAP3 POP DUP3 PUSH2 0x10B2 JUMPI PUSH2 0x10B1 PUSH2 0x102E JUMP JUMPDEST JUMPDEST DUP3 DUP3 DIV SWAP1 POP SWAP3 SWAP2 POP POP JUMP JUMPDEST PUSH32 0x4E6F207265776172647320746F20636C61696D00000000000000000000000000 PUSH1 0x0 DUP3 ADD MSTORE POP JUMP JUMPDEST PUSH1 0x0 PUSH2 0x10F3 PUSH1 0x13 DUP4 PUSH2 0xF1B JUMP JUMPDEST SWAP2 POP PUSH2 0x10FE DUP3 PUSH2 0x10BD JUMP JUMPDEST PUSH1 0x20 DUP3 ADD SWAP1 POP SWAP2 SWAP1 POP JUMP JUMPDEST PUSH1 0x0 PUSH1 0x20 DUP3 ADD SWAP1 POP DUP2 DUP2 SUB PUSH1 0x0 DUP4 ADD MSTORE PUSH2 0x1122 DUP2 PUSH2 0x10E6 JUMP JUMPDEST SWAP1 POP SWAP2 SWAP1 POP JUMP JUMPDEST PUSH1 0x0 PUSH2 0x1134 DUP3 PUSH2 0xCAE JUMP JUMPDEST SWAP2 POP PUSH2 0x113F DUP4 PUSH2 0xCAE JUMP JUMPDEST SWAP3 POP DUP3 DUP3 ADD SWAP1 POP DUP1 DUP3 GT ISZERO PUSH2 0x1157 JUMPI PUSH2 0x1156 PUSH2 0x105D JUMP JUMPDEST JUMPDEST SWAP3 SWAP2 POP POP JUMP JUMPDEST PUSH1 0x0 PUSH1 0x80 DUP3 ADD SWAP1 POP PUSH2 0x1172 PUSH1 0x0 DUP4 ADD DUP8 PUSH2 0xCB8 JUMP JUMPDEST PUSH2 0x117F PUSH1 0x20 DUP4 ADD DUP7 PUSH2 0xCB8 JUMP JUMPDEST PUSH2 0x118C PUSH1 0x40 DUP4 ADD DUP6 PUSH2 0xCB8 JUMP JUMPDEST PUSH2 0x1199 PUSH1 0x60 DUP4 ADD DUP5 PUSH2 0xCB8 JUMP JUMPDEST SWAP6 SWAP5 POP POP POP POP POP JUMP JUMPDEST PUSH32 0x5573657220616C72656164792072656769737465726564000000000000000000 PUSH1 0x0 DUP3 ADD MSTORE POP JUMP JUMPDEST PUSH1 0x0 PUSH2 0x11D8 PUSH1 0x17 DUP4 PUSH2 0xF1B JUMP JUMPDEST SWAP2 POP PUSH2 0x11E3 DUP3 PUSH2 0x11A2 JUMP JUMPDEST PUSH1 0x20 DUP3 ADD SWAP1 POP SWAP2 SWAP1 POP JUMP JUMPDEST PUSH1 0x0 PUSH1 0x20 DUP3 ADD SWAP1 POP DUP2 DUP2 SUB PUSH1 0x0 DUP4 ADD MSTORE PUSH2 0x1207 DUP2 PUSH2 0x11CB JUMP JUMPDEST SWAP1 POP SWAP2 SWAP1 POP JUMP JUMPDEST PUSH1 0x0 PUSH2 0x1219 DUP3 PUSH2 0xCAE JUMP JUMPDEST SWAP2 POP PUSH2 0x1224 DUP4 PUSH2 0xCAE JUMP JUMPDEST SWAP3 POP DUP3 DUP3 MUL PUSH2 0x1232 DUP2 PUSH2 0xCAE JUMP JUMPDEST SWAP2 POP DUP3 DUP3 DIV DUP5 EQ DUP4 ISZERO OR PUSH2 0x1249 JUMPI PUSH2 0x1248 PUSH2 0x105D JUMP JUMPDEST JUMPDEST POP SWAP3 SWAP2 POP POP JUMP INVALID LOG2 PUSH5 0x6970667358 0x22 SLT KECCAK256 DIV 0xE3 0xDD DUP4 PUSH22 0x717EEA9373EB27135746315DE32DE12F11658C977976 0xFC LOG4 CODESIZE 0x1F PUSH17 0x64736F6C63430008130033000000000000 "},"methodIdentifiers":{"HACKATHON_ID()":"52af388d","VERSION()":"ffa1ad74","claimRewards()":"372500ab","getUserHealthData(address)":"e4067f5e","getUserRewards(address)":"078b0fb7","isUserRegistered(address)":"163f7522","registerUser()":"4d3820eb","registeredUsers(address)":"0e50cee5","updateHealthData(uint256,uint256,uint256)":"3b431af7","userHealthData(address)":"4ad21821","userRewards(address)":"0660f1e8"}}}}}