{
  "_format": "hh-sol-artifact-1",
  "contractName": "HealthContractV2",
  "sourceName": "contracts/HealthContractV2.sol",
  "abi": [
    {
      "anonymous": false,
      "inputs": [
        {
          "indexed": true,
          "internalType": "address",
          "name": "user",
          "type": "address"
        },
        {
          "indexed": false,
          "internalType": "uint256",
          "name": "steps",
          "type": "uint256"
        },
        {
          "indexed": false,
          "internalType": "uint256",
          "name": "water",
          "type": "uint256"
        },
        {
          "indexed": false,
          "internalType": "uint256",
          "name": "sleep",
          "type": "uint256"
        },
        {
          "indexed": false,
          "internalType": "uint256",
          "name": "timestamp",
          "type": "uint256"
        }
      ],
      "name": "HealthDataUpdated",
      "type": "event"
    },
    {
      "anonymous": false,
      "inputs": [
        {
          "indexed": true,
          "internalType": "address",
          "name": "user",
          "type": "address"
        },
        {
          "indexed": false,
          "internalType": "uint256",
          "name": "points",
          "type": "uint256"
        },
        {
          "indexed": false,
          "internalType": "uint256",
          "name": "bnyAmount",
          "type": "uint256"
        },
        {
          "indexed": false,
          "internalType": "uint256",
          "name": "timestamp",
          "type": "uint256"
        }
      ],
      "name": "RewardsClaimed",
      "type": "event"
    },
    {
      "anonymous": false,
      "inputs": [
        {
          "indexed": true,
          "internalType": "address",
          "name": "user",
          "type": "address"
        },
        {
          "indexed": false,
          "internalType": "uint256",
          "name": "timestamp",
          "type": "uint256"
        }
      ],
      "name": "UserRegistered",
      "type": "event"
    },
    {
      "inputs": [],
      "name": "HACKATHON_ID",
      "outputs": [
        {
          "internalType": "uint256",
          "name": "",
          "type": "uint256"
        }
      ],
      "stateMutability": "view",
      "type": "function"
    },
    {
      "inputs": [],
      "name": "VERSION",
      "outputs": [
        {
          "internalType": "string",
          "name": "",
          "type": "string"
        }
      ],
      "stateMutability": "view",
      "type": "function"
    },
    {
      "inputs": [],
      "name": "claimRewards",
      "outputs": [],
      "stateMutability": "nonpayable",
      "type": "function"
    },
    {
      "inputs": [
        {
          "internalType": "address",
          "name": "_user",
          "type": "address"
        }
      ],
      "name": "getUserHealthData",
      "outputs": [
        {
          "components": [
            {
              "internalType": "uint256",
              "name": "dailySteps",
              "type": "uint256"
            },
            {
              "internalType": "uint256",
              "name": "waterIntake",
              "type": "uint256"
            },
            {
              "internalType": "uint256",
              "name": "sleepHours",
              "type": "uint256"
            },
            {
              "internalType": "uint256",
              "name": "goalStreak",
              "type": "uint256"
            },
            {
              "internalType": "uint256",
              "name": "lastUpdate",
              "type": "uint256"
            }
          ],
          "internalType": "struct HealthContractV2.HealthData",
          "name": "",
          "type": "tuple"
        }
      ],
      "stateMutability": "view",
      "type": "function"
    },
    {
      "inputs": [
        {
          "internalType": "address",
          "name": "_user",
          "type": "address"
        }
      ],
      "name": "getUserRewards",
      "outputs": [
        {
          "components": [
            {
              "internalType": "uint256",
              "name": "totalPoints",
              "type": "uint256"
            },
            {
              "internalType": "uint256",
              "name": "bnyRewards",
              "type": "uint256"
            },
            {
              "internalType": "uint256",
              "name": "lastClaimed",
              "type": "uint256"
            }
          ],
          "internalType": "struct HealthContractV2.Rewards",
          "name": "",
          "type": "tuple"
        }
      ],
      "stateMutability": "view",
      "type": "function"
    },
    {
      "inputs": [
        {
          "internalType": "address",
          "name": "_user",
          "type": "address"
        }
      ],
      "name": "isUserRegistered",
      "outputs": [
        {
          "internalType": "bool",
          "name": "",
          "type": "bool"
        }
      ],
      "stateMutability": "view",
      "type": "function"
    },
    {
      "inputs": [],
      "name": "registerUser",
      "outputs": [],
      "stateMutability": "nonpayable",
      "type": "function"
    },
    {
      "inputs": [
        {
          "internalType": "address",
          "name": "",
          "type": "address"
        }
      ],
      "name": "registeredUsers",
      "outputs": [
        {
          "internalType": "bool",
          "name": "",
          "type": "bool"
        }
      ],
      "stateMutability": "view",
      "type": "function"
    },
    {
      "inputs": [
        {
          "internalType": "uint256",
          "name": "_steps",
          "type": "uint256"
        },
        {
          "internalType": "uint256",
          "name": "_waterIntake",
          "type": "uint256"
        },
        {
          "internalType": "uint256",
          "name": "_sleepHours",
          "type": "uint256"
        }
      ],
      "name": "updateHealthData",
      "outputs": [],
      "stateMutability": "nonpayable",
      "type": "function"
    },
    {
      "inputs": [
        {
          "internalType": "address",
          "name": "",
          "type": "address"
        }
      ],
      "name": "userHealthData",
      "outputs": [
        {
          "internalType": "uint256",
          "name": "dailySteps",
          "type": "uint256"
        },
        {
          "internalType": "uint256",
          "name": "waterIntake",
          "type": "uint256"
        },
        {
          "internalType": "uint256",
          "name": "sleepHours",
          "type": "uint256"
        },
        {
          "internalType": "uint256",
          "name": "goalStreak",
          "type": "uint256"
        },
        {
          "internalType": "uint256",
          "name": "lastUpdate",
          "type": "uint256"
        }
      ],
      "stateMutability": "view",
      "type": "function"
    },
    {
      "inputs": [
        {
          "internalType": "address",
          "name": "",
          "type": "address"
        }
      ],
      "name": "userRewards",
      "outputs": [
        {
          "internalType": "uint256",
          "name": "totalPoints",
          "type": "uint256"
        },
        {
          "internalType": "uint256",
          "name": "bnyRewards",
          "type": "uint256"
        },
        {
          "internalType": "uint256",
          "name": "lastClaimed",
          "type": "uint256"
        }
      ],
      "stateMutability": "view",
      "type": "function"
    }
  ],
  "bytecode": "0x608060405234801561001057600080fd5b50611286806100206000396000f3fe608060405234801561001057600080fd5b50600436106100a95760003560e01c80633b431af7116100715780633b431af71461017a5780634ad21821146101965780634d3820eb146101ca57806352af388d146101d4578063e4067f5e146101f2578063ffa1ad7414610222576100a9565b80630660f1e8146100ae578063078b0fb7146100e05780630e50cee514610110578063163f752214610140578063372500ab14610170575b600080fd5b6100c860048036038101906100c39190610c81565b610240565b6040516100d793929190610cc7565b60405180910390f35b6100fa60048036038101906100f59190610c81565b61026a565b6040516101079190610d4f565b60405180910390f35b61012a60048036038101906101259190610c81565b61036d565b6040516101379190610d85565b60405180910390f35b61015a60048036038101906101559190610c81565b61038d565b6040516101679190610d85565b60405180910390f35b6101786103e3565b005b610194600480360381019061018f9190610dcc565b610588565b005b6101b060048036038101906101ab9190610c81565b61073d565b6040516101c1959493929190610e1f565b60405180910390f35b6101d2610773565b005b6101dc6109c4565b6040516101e99190610e72565b60405180910390f35b61020c60048036038101906102079190610c81565b6109cc565b6040516102199190610ef5565b60405180910390f35b61022a610ae2565b6040516102379190610fa0565b60405180910390f35b60016020528060005260406000206000915090508060000154908060010154908060020154905083565b610272610bce565b600260008373ffffffffffffffffffffffffffffffffffffffff1673ffffffffffffffffffffffffffffffffffffffff16815260200190815260200160002060009054906101000a900460ff166102fe576040517f08c379a00000000000000000000000000000000000000000000000000000000081526004016102f59061100e565b60405180910390fd5b600160008373ffffffffffffffffffffffffffffffffffffffff1673ffffffffffffffffffffffffffffffffffffffff16815260200190815260200160002060405180606001604052908160008201548152602001600182015481526020016002820154815250509050919050565b60026020528060005260406000206000915054906101000a900460ff1681565b6000600260008373ffffffffffffffffffffffffffffffffffffffff1673ffffffffffffffffffffffffffffffffffffffff16815260200190815260200160002060009054906101000a900460ff169050919050565b600260003373ffffffffffffffffffffffffffffffffffffffff1673ffffffffffffffffffffffffffffffffffffffff16815260200190815260200160002060009054906101000a900460ff1661046f576040517f08c379a00000000000000000000000000000000000000000000000000000000081526004016104669061100e565b60405180910390fd5b6000600160003373ffffffffffffffffffffffffffffffffffffffff1673ffffffffffffffffffffffffffffffffffffffff16815260200190815260200160002090506000606482600001546104c5919061108c565b90506000811161050a576040517f08c379a000000000000000000000000000000000000000000000000000000000815260040161050190611109565b60405180910390fd5b8082600101600082825461051e9190611129565b925050819055504282600201819055503373ffffffffffffffffffffffffffffffffffffffff167f56253d287efacdb2c4cd76dd03624a4821c1ce721d1152e8f5f5718f6087c9bf8360000154834260405161057c93929190610cc7565b60405180910390a25050565b600260003373ffffffffffffffffffffffffffffffffffffffff1673ffffffffffffffffffffffffffffffffffffffff16815260200190815260200160002060009054906101000a900460ff16610614576040517f08c379a000000000000000000000000000000000000000000000000000000000815260040161060b9061100e565b60405180910390fd5b60008060003373ffffffffffffffffffffffffffffffffffffffff1673ffffffffffffffffffffffffffffffffffffffff16815260200190815260200160002090508381600001819055508281600101819055508181600201819055504281600401819055506000610687858585610b1b565b905080600160003373ffffffffffffffffffffffffffffffffffffffff1673ffffffffffffffffffffffffffffffffffffffff16815260200190815260200160002060000160008282546106db9190611129565b925050819055503373ffffffffffffffffffffffffffffffffffffffff167fbb66db6e3ec995e168abd9ebe8bd4e88f48d7906a0260013b4cd977e791ec8998686864260405161072e949392919061115d565b60405180910390a25050505050565b60006020528060005260406000206000915090508060000154908060010154908060020154908060030154908060040154905085565b600260003373ffffffffffffffffffffffffffffffffffffffff1673ffffffffffffffffffffffffffffffffffffffff16815260200190815260200160002060009054906101000a900460ff1615610800576040517f08c379a00000000000000000000000000000000000000000000000000000000081526004016107f7906111ee565b60405180910390fd5b6001600260003373ffffffffffffffffffffffffffffffffffffffff1673ffffffffffffffffffffffffffffffffffffffff16815260200190815260200160002060006101000a81548160ff0219169083151502179055506040518060a0016040528060008152602001600081526020016000815260200160008152602001428152506000803373ffffffffffffffffffffffffffffffffffffffff1673ffffffffffffffffffffffffffffffffffffffff1681526020019081526020016000206000820151816000015560208201518160010155604082015181600201556060820151816003015560808201518160040155905050604051806060016040528060008152602001600081526020016000815250600160003373ffffffffffffffffffffffffffffffffffffffff1673ffffffffffffffffffffffffffffffffffffffff1681526020019081526020016000206000820151816000015560208201518160010155604082015181600201559050503373ffffffffffffffffffffffffffffffffffffffff167fe29d35093005f4d575e1003753426b57a7f64378ba73332eef9c6ccc2b8decd6426040516109ba9190610e72565b60405180910390a2565b63013500b381565b6109d4610bef565b600260008373ffffffffffffffffffffffffffffffffffffffff1673ffffffffffffffffffffffffffffffffffffffff16815260200190815260200160002060009054906101000a900460ff16610a60576040517f08c379a0000000000000000000000000000000000000000000000000000000008152600401610a579061100e565b60405180910390fd5b6000808373ffffffffffffffffffffffffffffffffffffffff1673ffffffffffffffffffffffffffffffffffffffff1681526020019081526020016000206040518060a0016040529081600082015481526020016001820154815260200160028201548152602001600382015481526020016004820154815250509050919050565b6040518060400160405280600f81526020017f322e302e302d4841434b4154484f4e000000000000000000000000000000000081525081565b6000806000905060648086610b30919061108c565b11610b4757606485610b42919061108c565b610b4a565b60645b81610b559190611129565b90506050600a85610b66919061120e565b11610b7d57600a84610b78919061120e565b610b80565b60505b81610b8b9190611129565b90506078600f84610b9c919061120e565b11610bb357600f83610bae919061120e565b610bb6565b60785b81610bc19190611129565b9050809150509392505050565b60405180606001604052806000815260200160008152602001600081525090565b6040518060a0016040528060008152602001600081526020016000815260200160008152602001600081525090565b600080fd5b600073ffffffffffffffffffffffffffffffffffffffff82169050919050565b6000610c4e82610c23565b9050919050565b610c5e81610c43565b8114610c6957600080fd5b50565b600081359050610c7b81610c55565b92915050565b600060208284031215610c9757610c96610c1e565b5b6000610ca584828501610c6c565b91505092915050565b6000819050919050565b610cc181610cae565b82525050565b6000606082019050610cdc6000830186610cb8565b610ce96020830185610cb8565b610cf66040830184610cb8565b949350505050565b610d0781610cae565b82525050565b606082016000820151610d236000850182610cfe565b506020820151610d366020850182610cfe565b506040820151610d496040850182610cfe565b50505050565b6000606082019050610d646000830184610d0d565b92915050565b60008115159050919050565b610d7f81610d6a565b82525050565b6000602082019050610d9a6000830184610d76565b92915050565b610da981610cae565b8114610db457600080fd5b50565b600081359050610dc681610da0565b92915050565b600080600060608486031215610de557610de4610c1e565b5b6000610df386828701610db7565b9350506020610e0486828701610db7565b9250506040610e1586828701610db7565b9150509250925092565b600060a082019050610e346000830188610cb8565b610e416020830187610cb8565b610e4e6040830186610cb8565b610e5b6060830185610cb8565b610e686080830184610cb8565b9695505050505050565b6000602082019050610e876000830184610cb8565b92915050565b60a082016000820151610ea36000850182610cfe565b506020820151610eb66020850182610cfe565b506040820151610ec96040850182610cfe565b506060820151610edc6060850182610cfe565b506080820151610eef6080850182610cfe565b50505050565b600060a082019050610f0a6000830184610e8d565b92915050565b600081519050919050565b600082825260208201905092915050565b60005b83811015610f4a578082015181840152602081019050610f2f565b60008484015250505050565b6000601f19601f8301169050919050565b6000610f7282610f10565b610f7c8185610f1b565b9350610f8c818560208601610f2c565b610f9581610f56565b840191505092915050565b60006020820190508181036000830152610fba8184610f67565b905092915050565b7f55736572206e6f74207265676973746572656400000000000000000000000000600082015250565b6000610ff8601383610f1b565b915061100382610fc2565b602082019050919050565b6000602082019050818103600083015261102781610feb565b9050919050565b7f4e487b7100000000000000000000000000000000000000000000000000000000600052601260045260246000fd5b7f4e487b7100000000000000000000000000000000000000000000000000000000600052601160045260246000fd5b600061109782610cae565b91506110a283610cae565b9250826110b2576110b161102e565b5b828204905092915050565b7f4e6f207265776172647320746f20636c61696d00000000000000000000000000600082015250565b60006110f3601383610f1b565b91506110fe826110bd565b602082019050919050565b60006020820190508181036000830152611122816110e6565b9050919050565b600061113482610cae565b915061113f83610cae565b92508282019050808211156111575761115661105d565b5b92915050565b60006080820190506111726000830187610cb8565b61117f6020830186610cb8565b61118c6040830185610cb8565b6111996060830184610cb8565b95945050505050565b7f5573657220616c72656164792072656769737465726564000000000000000000600082015250565b60006111d8601783610f1b565b91506111e3826111a2565b602082019050919050565b60006020820190508181036000830152611207816111cb565b9050919050565b600061121982610cae565b915061122483610cae565b925082820261123281610cae565b915082820484148315176112495761124861105d565b5b509291505056fea264697066735822122004e3dd8375717eea9373eb27135746315de32de12f11658c977976fca4381f7064736f6c63430008130033",
  "linkReferences": {},
  "deployedLinkReferences": {}
}