{
  "_format": "hh-sol-artifact-1",
  "contractName": "HealthContract",
  "sourceName": "contracts/HealthContract.sol",
  "abi": [
    {
      "anonymous": false,
      "inputs": [
        {
          "indexed": true,
          "internalType": "address",
          "name": "user",
          "type": "address"
        },
        {
          "indexed": false,
          "internalType": "uint256",
          "name": "steps",
          "type": "uint256"
        },
        {
          "indexed": false,
          "internalType": "uint256",
          "name": "water",
          "type": "uint256"
        },
        {
          "indexed": false,
          "internalType": "uint256",
          "name": "sleep",
          "type": "uint256"
        }
      ],
      "name": "HealthDataUpdated",
      "type": "event"
    },
    {
      "anonymous": false,
      "inputs": [
        {
          "indexed": true,
          "internalType": "address",
          "name": "user",
          "type": "address"
        },
        {
          "indexed": false,
          "internalType": "uint256",
          "name": "amount",
          "type": "uint256"
        }
      ],
      "name": "RewardsClaimed",
      "type": "event"
    },
    {
      "anonymous": false,
      "inputs": [
        {
          "indexed": true,
          "internalType": "address",
          "name": "user",
          "type": "address"
        },
        {
          "indexed": false,
          "internalType": "uint256",
          "name": "points",
          "type": "uint256"
        },
        {
          "indexed": false,
          "internalType": "uint256",
          "name": "bnyAmount",
          "type": "uint256"
        }
      ],
      "name": "RewardsEarned",
      "type": "event"
    },
    {
      "inputs": [],
      "name": "claimRewards",
      "outputs": [],
      "stateMutability": "nonpayable",
      "type": "function"
    },
    {
      "inputs": [
        {
          "internalType": "address",
          "name": "user",
          "type": "address"
        }
      ],
      "name": "getBNYRewards",
      "outputs": [
        {
          "internalType": "uint256",
          "name": "",
          "type": "uint256"
        }
      ],
      "stateMutability": "view",
      "type": "function"
    },
    {
      "inputs": [
        {
          "internalType": "address",
          "name": "user",
          "type": "address"
        }
      ],
      "name": "getTotalPoints",
      "outputs": [
        {
          "internalType": "uint256",
          "name": "",
          "type": "uint256"
        }
      ],
      "stateMutability": "view",
      "type": "function"
    },
    {
      "inputs": [
        {
          "internalType": "address",
          "name": "user",
          "type": "address"
        }
      ],
      "name": "getUserHealthData",
      "outputs": [
        {
          "components": [
            {
              "internalType": "uint256",
              "name": "dailySteps",
              "type": "uint256"
            },
            {
              "internalType": "uint256",
              "name": "waterIntake",
              "type": "uint256"
            },
            {
              "internalType": "uint256",
              "name": "sleepHours",
              "type": "uint256"
            },
            {
              "internalType": "uint256",
              "name": "goalStreak",
              "type": "uint256"
            },
            {
              "internalType": "uint256",
              "name": "lastUpdate",
              "type": "uint256"
            }
          ],
          "internalType": "struct HealthContract.HealthData",
          "name": "",
          "type": "tuple"
        }
      ],
      "stateMutability": "view",
      "type": "function"
    },
    {
      "inputs": [
        {
          "internalType": "address",
          "name": "user",
          "type": "address"
        }
      ],
      "name": "getUserRewards",
      "outputs": [
        {
          "components": [
            {
              "internalType": "uint256",
              "name": "totalPoints",
              "type": "uint256"
            },
            {
              "internalType": "uint256",
              "name": "bnyRewards",
              "type": "uint256"
            },
            {
              "internalType": "uint256",
              "name": "lastClaimed",
              "type": "uint256"
            }
          ],
          "internalType": "struct HealthContract.UserRewards",
          "name": "",
          "type": "tuple"
        }
      ],
      "stateMutability": "view",
      "type": "function"
    },
    {
      "inputs": [],
      "name": "registerUser",
      "outputs": [],
      "stateMutability": "nonpayable",
      "type": "function"
    },
    {
      "inputs": [
        {
          "internalType": "address",
          "name": "",
          "type": "address"
        }
      ],
      "name": "registeredUsers",
      "outputs": [
        {
          "internalType": "bool",
          "name": "",
          "type": "bool"
        }
      ],
      "stateMutability": "view",
      "type": "function"
    },
    {
      "inputs": [
        {
          "internalType": "uint256",
          "name": "steps",
          "type": "uint256"
        },
        {
          "internalType": "uint256",
          "name": "water",
          "type": "uint256"
        },
        {
          "internalType": "uint256",
          "name": "sleep",
          "type": "uint256"
        }
      ],
      "name": "updateHealthData",
      "outputs": [],
      "stateMutability": "nonpayable",
      "type": "function"
    },
    {
      "inputs": [
        {
          "internalType": "address",
          "name": "",
          "type": "address"
        }
      ],
      "name": "userHealthData",
      "outputs": [
        {
          "internalType": "uint256",
          "name": "dailySteps",
          "type": "uint256"
        },
        {
          "internalType": "uint256",
          "name": "waterIntake",
          "type": "uint256"
        },
        {
          "internalType": "uint256",
          "name": "sleepHours",
          "type": "uint256"
        },
        {
          "internalType": "uint256",
          "name": "goalStreak",
          "type": "uint256"
        },
        {
          "internalType": "uint256",
          "name": "lastUpdate",
          "type": "uint256"
        }
      ],
      "stateMutability": "view",
      "type": "function"
    },
    {
      "inputs": [
        {
          "internalType": "address",
          "name": "",
          "type": "address"
        }
      ],
      "name": "userRewards",
      "outputs": [
        {
          "internalType": "uint256",
          "name": "totalPoints",
          "type": "uint256"
        },
        {
          "internalType": "uint256",
          "name": "bnyRewards",
          "type": "uint256"
        },
        {
          "internalType": "uint256",
          "name": "lastClaimed",
          "type": "uint256"
        }
      ],
      "stateMutability": "view",
      "type": "function"
    }
  ],
  "bytecode": "0x608060405234801561001057600080fd5b50611198806100206000396000f3fe608060405234801561001057600080fd5b506004361061009e5760003560e01c80633b431af7116100665780633b431af71461016f5780634ad218211461018b5780634d3820eb146101bf578063d05ba57a146101c9578063e4067f5e146101f95761009e565b80630660f1e8146100a3578063078b0fb7146100d55780630e50cee5146101055780631088ce9014610135578063372500ab14610165575b600080fd5b6100bd60048036038101906100b89190610be4565b610229565b6040516100cc93929190610c2a565b60405180910390f35b6100ef60048036038101906100ea9190610be4565b610253565b6040516100fc9190610cb2565b60405180910390f35b61011f600480360381019061011a9190610be4565b6102ca565b60405161012c9190610ce8565b60405180910390f35b61014f600480360381019061014a9190610be4565b6102ea565b60405161015c9190610d03565b60405180910390f35b61016d610336565b005b61018960048036038101906101849190610d4a565b6104ba565b005b6101a560048036038101906101a09190610be4565b61074e565b6040516101b6959493929190610d9d565b60405180910390f35b6101c7610784565b005b6101e360048036038101906101de9190610be4565b610987565b6040516101f09190610d03565b60405180910390f35b610213600480360381019061020e9190610be4565b6109d3565b6040516102209190610e58565b60405180910390f35b60016020528060005260406000206000915090508060000154908060010154908060020154905083565b61025b610b31565b600160008373ffffffffffffffffffffffffffffffffffffffff1673ffffffffffffffffffffffffffffffffffffffff16815260200190815260200160002060405180606001604052908160008201548152602001600182015481526020016002820154815250509050919050565b60026020528060005260406000206000915054906101000a900460ff1681565b6000600160008373ffffffffffffffffffffffffffffffffffffffff1673ffffffffffffffffffffffffffffffffffffffff168152602001908152602001600020600001549050919050565b600260003373ffffffffffffffffffffffffffffffffffffffff1673ffffffffffffffffffffffffffffffffffffffff16815260200190815260200160002060009054906101000a900460ff166103c2576040517f08c379a00000000000000000000000000000000000000000000000000000000081526004016103b990610ed0565b60405180910390fd5b6000600160003373ffffffffffffffffffffffffffffffffffffffff1673ffffffffffffffffffffffffffffffffffffffff1681526020019081526020016000209050600081600101541161044c576040517f08c379a000000000000000000000000000000000000000000000000000000000815260040161044390610f3c565b60405180910390fd5b600081600101549050600082600101819055504282600201819055503373ffffffffffffffffffffffffffffffffffffffff167ffc30cddea38e2bf4d6ea7d3f9ed3b6ad7f176419f4963bd81318067a4aee73fe826040516104ae9190610d03565b60405180910390a25050565b600260003373ffffffffffffffffffffffffffffffffffffffff1673ffffffffffffffffffffffffffffffffffffffff16815260200190815260200160002060009054906101000a900460ff16610546576040517f08c379a000000000000000000000000000000000000000000000000000000000815260040161053d90610ed0565b60405180910390fd5b60008310158015610558575060008210155b8015610565575060008110155b6105a4576040517f08c379a000000000000000000000000000000000000000000000000000000000815260040161059b90610fa8565b60405180910390fd5b60008060003373ffffffffffffffffffffffffffffffffffffffff1673ffffffffffffffffffffffffffffffffffffffff16815260200190815260200160002090508381600001819055508281600101819055508181600201819055504281600401819055506000610617858585610a5d565b905060006064826106289190611026565b90506000600160003373ffffffffffffffffffffffffffffffffffffffff1673ffffffffffffffffffffffffffffffffffffffff1681526020019081526020016000209050828160000160008282546106819190611057565b925050819055508181600101600082825461069c9190611057565b925050819055503373ffffffffffffffffffffffffffffffffffffffff167f1e27148a3fdc35cd887f2a7bdb9ad4dd1579a8736ee48a1da719061add94111f8888886040516106ed93929190610c2a565b60405180910390a23373ffffffffffffffffffffffffffffffffffffffff167f7e6f83f6b2f229ad07ce108188dc2337a3930ac486da0a1b9172a15a58e871ee848460405161073d92919061108b565b60405180910390a250505050505050565b60006020528060005260406000206000915090508060000154908060010154908060020154908060030154908060040154905085565b600260003373ffffffffffffffffffffffffffffffffffffffff1673ffffffffffffffffffffffffffffffffffffffff16815260200190815260200160002060009054906101000a900460ff1615610811576040517f08c379a000000000000000000000000000000000000000000000000000000000815260040161080890611100565b60405180910390fd5b6001600260003373ffffffffffffffffffffffffffffffffffffffff1673ffffffffffffffffffffffffffffffffffffffff16815260200190815260200160002060006101000a81548160ff0219169083151502179055506040518060a0016040528060008152602001600081526020016000815260200160008152602001428152506000803373ffffffffffffffffffffffffffffffffffffffff1673ffffffffffffffffffffffffffffffffffffffff1681526020019081526020016000206000820151816000015560208201518160010155604082015181600201556060820151816003015560808201518160040155905050604051806060016040528060008152602001600081526020016000815250600160003373ffffffffffffffffffffffffffffffffffffffff1673ffffffffffffffffffffffffffffffffffffffff168152602001908152602001600020600082015181600001556020820151816001015560408201518160020155905050565b6000600160008373ffffffffffffffffffffffffffffffffffffffff1673ffffffffffffffffffffffffffffffffffffffff168152602001908152602001600020600101549050919050565b6109db610b52565b6000808373ffffffffffffffffffffffffffffffffffffffff1673ffffffffffffffffffffffffffffffffffffffff1681526020019081526020016000206040518060a0016040529081600082015481526020016001820154815260200160028201548152602001600382015481526020016004820154815250509050919050565b600080600090506127108510610a8157606481610a7a9190611057565b9050610a9c565b606485610a8e9190611026565b81610a999190611057565b90505b60088410610ab857603281610ab19190611057565b9050610ad3565b600684610ac59190611120565b81610ad09190611057565b90505b60078310158015610ae5575060098311155b15610afe57603281610af79190611057565b9050610b26565b60068310158015610b105750600a8311155b15610b2557601981610b229190611057565b90505b5b809150509392505050565b60405180606001604052806000815260200160008152602001600081525090565b6040518060a0016040528060008152602001600081526020016000815260200160008152602001600081525090565b600080fd5b600073ffffffffffffffffffffffffffffffffffffffff82169050919050565b6000610bb182610b86565b9050919050565b610bc181610ba6565b8114610bcc57600080fd5b50565b600081359050610bde81610bb8565b92915050565b600060208284031215610bfa57610bf9610b81565b5b6000610c0884828501610bcf565b91505092915050565b6000819050919050565b610c2481610c11565b82525050565b6000606082019050610c3f6000830186610c1b565b610c4c6020830185610c1b565b610c596040830184610c1b565b949350505050565b610c6a81610c11565b82525050565b606082016000820151610c866000850182610c61565b506020820151610c996020850182610c61565b506040820151610cac6040850182610c61565b50505050565b6000606082019050610cc76000830184610c70565b92915050565b60008115159050919050565b610ce281610ccd565b82525050565b6000602082019050610cfd6000830184610cd9565b92915050565b6000602082019050610d186000830184610c1b565b92915050565b610d2781610c11565b8114610d3257600080fd5b50565b600081359050610d4481610d1e565b92915050565b600080600060608486031215610d6357610d62610b81565b5b6000610d7186828701610d35565b9350506020610d8286828701610d35565b9250506040610d9386828701610d35565b9150509250925092565b600060a082019050610db26000830188610c1b565b610dbf6020830187610c1b565b610dcc6040830186610c1b565b610dd96060830185610c1b565b610de66080830184610c1b565b9695505050505050565b60a082016000820151610e066000850182610c61565b506020820151610e196020850182610c61565b506040820151610e2c6040850182610c61565b506060820151610e3f6060850182610c61565b506080820151610e526080850182610c61565b50505050565b600060a082019050610e6d6000830184610df0565b92915050565b600082825260208201905092915050565b7f55736572206e6f74207265676973746572656400000000000000000000000000600082015250565b6000610eba601383610e73565b9150610ec582610e84565b602082019050919050565b60006020820190508181036000830152610ee981610ead565b9050919050565b7f4e6f207265776172647320746f20636c61696d00000000000000000000000000600082015250565b6000610f26601383610e73565b9150610f3182610ef0565b602082019050919050565b60006020820190508181036000830152610f5581610f19565b9050919050565b7f496e76616c6964206865616c7468206461746100000000000000000000000000600082015250565b6000610f92601383610e73565b9150610f9d82610f5c565b602082019050919050565b60006020820190508181036000830152610fc181610f85565b9050919050565b7f4e487b7100000000000000000000000000000000000000000000000000000000600052601260045260246000fd5b7f4e487b7100000000000000000000000000000000000000000000000000000000600052601160045260246000fd5b600061103182610c11565b915061103c83610c11565b92508261104c5761104b610fc8565b5b828204905092915050565b600061106282610c11565b915061106d83610c11565b925082820190508082111561108557611084610ff7565b5b92915050565b60006040820190506110a06000830185610c1b565b6110ad6020830184610c1b565b9392505050565b7f5573657220616c72656164792072656769737465726564000000000000000000600082015250565b60006110ea601783610e73565b91506110f5826110b4565b602082019050919050565b60006020820190508181036000830152611119816110dd565b9050919050565b600061112b82610c11565b915061113683610c11565b925082820261114481610c11565b9150828204841483151761115b5761115a610ff7565b5b509291505056fea264697066735822122082da05e7d1f788c3eb8f39fae115d51f179fb8fb891111f91df55b8ad03328ac64736f6c63430008130033",
  "linkReferences": {},
  "deployedLinkReferences": {}
}